:020000040000FA
:10000000984D0020150200001D0200001F02000094
:100010002102000023020000250200000000000071
:1000200000000000000000000000000027020000A7
:1000300029020000000000002B0200002D02000039
:100040002F0200002F0200002F0200002F020000EC
:100050002F0200002F020000FD0200002F0200000E
:10006000290600005D0600002F0200002F0200009C
:100070002F0200002F0200002F0200002F020000BC
:100080002F0200002F0200002F0200002F020000AC
:100090002F0200002F0200002F0200002F0200009C
:1000A0002F0200002F0200002F0200002F0200008C
:1000B0002F0200002F0200000000000000000000DE
:1000C0002F0200002F0200002F0200002F0200006C
:1000D0002F0200002F0200002F0200002F0200005C
:1000E0002F0200002F0200002F020000000000007D
:1000F000000000002F020000000000002F0200009E
:1001000000000000000000000000000000000000EF
:1001100000000000000000000000000000000000DF
:1001200000000000000000000000000000000000CF
:1001300000000000000000000000000000000000BF
:1001400000000000000000000000000000000000AF
:10015000000000000000000000000000000000009F
:10016000000000000000000000000000000000008F
:10017000000000000000000000000000000000007F
:10018000000000000000000000000000000000006F
:10019000000000000000000000000000000000005F
:1001A000000000000000000000000000000000004F
:1001B000000000000000000000000000000000003F
:1001C000000000000000000000000000000000002F
:1001D000000000000000000000000000000000001F
:1001E000000000000000000000000000000000000F
:1001F00000000000000000000000000000000000FF
:10020000DFF80CD000F068F8004800470113000048
:10021000984D00200648804706480047FEE7FEE765
:10022000FEE7FEE7FEE7FEE7FEE7FEE7FEE7FEE7A6
:10023000A9030000010200002DE9F05F054600203F
:1002400092469B4688460646814640241BE0284647
:1002500041464746224600F02FF853465A46C01AF8
:10026000914110D311461846224600F016F82D1A77
:1002700067EB01084F4622460120002100F00DF8EF
:1002800017EB00094E41201EA4F10104DFDC4846B3
:1002900031462A464346BDE8F09F202A04DB203A37
:1002A00000FA02F1002070479140C2F1200320FAC9
:1002B00003F3194390407047202A04DB203A21FAC7
:1002C00002F00021704721FA02F3D040C2F120026F
:1002D0009140084319467047064C074D06E0E06818
:1002E00040F0010394E8070098471034AC42F6D37D
:1002F000FFF78AFFA41A0000C41A00002DE9F04796
:10030000DFF89C900024D9F80400002898BFBDE8CD
:10031000F087DFF890A0012602274FF003080025A0
:100320005AF824000B2808BF29460BD00C2808BF18
:10033000314607D0182808BF394603D0192808BF0E
:10034000414625D18A0002F1804202F5C042D2F82E
:100350000021EAB1D9F80820002A18BF90475AF8BE
:1003600024000B2808BF28460BD00C2808BF3046B5
:1003700007D0182808BF384603D0192808BF4046C0
:1003800006D1800000F1804000F5C040C0F8005167
:10039000D9F80400641C8442C2D3BDE8F087000091
:1003A00098000020A400002010B44FF080520023D9
:1003B000D2E94C10082909D14FF0804CCCF80C310F
:1003C000CCF81031DFF8D4C1CCF80030082965D161
:1003D000734B1B68DFF8CCC1CCF80030724B1B6844
:1003E0000CF1040CCCF80030704B1B680CF1040CC1
:1003F000CCF800306E4B1B680CF1040CCCF80030CC
:100400006C4B1B680CF1040CCCF800306A4B1B6879
:100410000CF1040CCCF80030684B1B68DFF8A0C16D
:10042000CCF80030674B1B680CF1040CCCF80030A2
:10043000654B1B680CF1040CCCF80030634B1B6857
:100440000CF1040CCCF80030614B1B680CF1040C6F
:10045000CCF800305F4B1B680CF1040CCCF800307A
:100460005D4B1B68DFF874C1CCF800305C4B1B6837
:100470000CF1040CCCF800305A4B1B680CF1040C46
:10048000CCF80030584B1B680CF1040CCCF8003051
:10049000564B1B680CF1040CCCF80030082908BF3F
:1004A0005FEA000304D1DFF84CC1514BCCF80030B7
:1004B000082908BF5FEA000304D1DFF83CC1FB2331
:1004C000CCF80030082908BF5FEA000308D14B4B85
:1004D00092F85842D3F800C064F3030CC3F800C08C
:1004E000082908BF5FEA000305D1DFF814C14FF403
:1004F0000073CCF80030082907D14248016811F098
:10050000010F1CBF6FF0010101603F48016841F419
:1005100070010160BFF34F8FBFF36F8FD2E94C10B2
:100520004FF01022082905D1042803D9D2F8080277
:1005300036490860D2F8000210F0004F04BFD2F82C
:10054000040210F0004F24D0314B012018603148D4
:1005500001680029FCD04FF0120CC2F800C20168FB
:100560000029FCD0C2F804C201680029FCD0002197
:10057000196001680029FCD0BFF34F8F264801683D
:10058000264A01F4E06111430160BFF34F8F00BFC1
:10059000FDE724492248086010BC70473805004038
:1005A0000404001020C50040080400100C040010D2
:1005B0001004001014040010180400101C04001093
:1005C00040C500402004001024040010280400103E
:1005D0002C040010300400103404001060C50040EA
:1005E000380400103C0400104004001044040010C3
:1005F000488103008C56004018F50040E40E00408E
:10060000409602400004004088ED00E0580500409C
:1006100004E5014000E401400CED00E00400FA05AF
:100620000090D003B80000200A4882B0D0F84011F2
:10063000002904BF02B070470021C0F84011D0F873
:100640004001009004480068002804BF02B07047D1
:1006500002B0004700800040880000200D4881B0B3
:10066000D0F840210C4962B10022C0F840218B68CB
:10067000CA685B1C42F100028B60CA60D0F840017E
:1006800000908868CA68401C42F100028860CA6015
:1006900001B07047009000408800002002E008C8C8
:1006A000121F08C1002AFAD170477047002001E0EC
:1006B00001C1121F002AFBD17047000003480268E5
:1006C000002A08BF70470021406810470000002042
:1006D0002DE9F0470D460846354900274FF001083F
:1006E0004A684FF002094FF0030A824208BF3C46B5
:1006F0000FD0CA68824208BF44460AD04A69824283
:1007000008BF4C4605D0CA6982420CBF5446BDE8BA
:10071000F08701EBC406307898B1012821D0022877
:1007200031D0032818BFBDE8F087284600F092FEBC
:10073000284600F08DFB284600F0D6FB3770BDE858
:10074000F087284600F09EFB00221421104601F09D
:1007500063F9E11C2A4601F0BBF886F80080BDE889
:10076000F08700220A21012001F056F907462846A9
:1007700000F071FEE11C2A46384601F0A9F886F81F
:100780000090BDE8F087284600F04EFC012818BF15
:10079000BDE8F08700221421104601F03DF9E11C6C
:1007A0002A4601F095F886F800A0BDE8F087000021
:1007B000080900202DE9F04100F0CEFB0122154987
:1007C000042001F035F90024134E144D274600BFD4
:1007D00006F8347006EBC40155F82400486000F0B8
:1007E00083FB55F8240000F06FFB55F8240000212E
:1007F00000F026FCE01CC0B2094A002101F020F8FC
:10080000641C042CE4DBBDE8F0410021044A022012
:1008100001F016B85914000008090020941A0000CD
:10082000D106000010B500F00BFB00F009FB00F052
:10083000F3FA03480068BDE8104000F075B8000006
:100840000800002010B5054C206800F043F800F0C7
:10085000F3FA2068BDE8104000F066B808000020F8
:1008600010B5044600F0EAFA00F046F801480460CA
:1008700010BD00000800002010B508B1042801D9FF
:10088000002010BD002914BF00210121044A02EB01
:10089000800050F8040C00F0B3FB012010BD0000F4
:1008A000741A000070B50A4E012400BF06EB8405DF
:1008B000012155F8040C00F0C3FB55F8040C01218C
:1008C00000F09EFB601CC4B2042CEFD9042070BD64
:1008D000741A000008B1042801D9002070470549A6
:1008E00010B501EB8000012150F8040C00F088FBEA
:1008F000012010BD841A000070B50A4E012400BF0B
:1009000006EB8405012155F8040C00F099FB55F81D
:10091000040C012100F074FB641C042CF0D90420A9
:1009200070BD0000841A000008B1042801D900201D
:100930007047054910B501EB8000002150F8040C08
:1009400000F05EFB012010BD841A000010B5044CBD
:100950006068401C606000F089FB207010BD0000E2
:100960001C0000200648416819B1491E416018BFAB
:1009700070470078002808BF704700F07FBB000078
:100980001C00002010B500F07BFB034A0023126816
:10099000FFF752FC10BD0000BC00002010B5044859
:1009A00000F08EFB02480068002818BF012010BD2F
:1009B000BC00002010B504460848C0E900120848F1
:1009C00000F04CFB06484FF47A7161430068BDE8C3
:1009D00010404843034900F0A5BB00000000002080
:1009E000BC000020BD06000000F0E2BB30B50024D2
:1009F00083B022460028BCBF012240426D46002839
:100A0000C8BF164B24D012DD83FB00C14FEAA10CF6
:100A1000ACEBE171C1F1000C0CEB8C0C00EB4C0069
:100A200000F13000285504F10104081EECDC002A16
:100A30001CBF2D2000F02AFC002CDCBF03B030BD11
:100A4000641E285D00F022FC002CF9DC03B030BDF0
:100A5000302000F01BFC03B030BD00006766666606
:100A600010B504460078002808BF10BD14F8010B2B
:100A700000F00CFC20780028F8D110BD10B5FFF76D
:100A800065FF00F01DFCBDE81040FFF76BBF10B51F
:100A90000446FFF75BFF204600F01AFCBDE810405B
:100AA000FFF760BF10B518A0FFF7DAFF23A0FFF72C
:100AB000D7FF244CE06AFFF799FF23A0FFF7D0FF90
:100AC00024A0FFF7CDFF206BFFF790FF22A0FFF7D8
:100AD000C7FF24A0FFF7C4FFA06AFFF787FF2AA083
:100AE000FFF7BEFF2BA0FFF7BBFFE069FFF77EFF1C
:100AF0002CA0FFF7B5FF606BFFF778FFBDE8104053
:100B000021A0FFF7ADBF0000547520646573656DCB
:100B100070656E6F20656E20657374612070617200
:100B200074696461206861207369646F20656C205A
:100B30007369677569656E74650D0A00436F6E2091
:100B40000000000024000020206163696572746F5A
:100B5000730D0A00592000002066616C6C6F730DE4
:100B60000A00000048617320636F6E7365677569E2
:100B7000646F20756E612070756E74756163696F46
:100B80006E206465200000002070756E746F730D18
:100B90000A0000004C6F2071756520656E20747529
:100BA000732000002070617274696461732C20737B
:100BB000756D6120756E20746F74616C20646520A2
:100BC0000000000070B5304C0D462169002905DC9D
:100BD000BDE8704000210B2000F03EBC092817D171
:100BE0001E2915DAFF2000F003FC002211461046F2
:100BF00000F012FF0022092100F06AFE002101200E
:100C0000FFF73AFEBDE8704000210220FFF734BE36
:100C1000ADB100221146104600F0FEFE002209216F
:100C200000F056FE00210120FFF726FE00210220E1
:100C3000FFF722FE2846BDE8704000F0D9BB1348FC
:100C4000C1F11E02805CC0F3400200F00105481EA5
:100C50000126206122B101210846FFF70DFEA660A2
:100C600025B101210220FFF707FEE6606169606897
:100C70000022411A104600F0CFFEBDE8704000226D
:100C8000092100F025BE000024000020640000209F
:100C900070B500221146104600F0BEFE00220A2167
:100CA00000F016FE29490A2000F078FD284C0025A6
:100CB000A561E069401CE061A16A606B0844606363
:100CC0001E2020612348FFF7CBFE2348FFF7C8FE14
:100CD000E06AFFF78BFE2148FFF7C2FE2048FFF7CE
:100CE000BFFE206BFFF782FE1E48FFF7B9FE1E48CD
:100CF000FFF7B6FEA06AFFF779FE1C48FFF7B0FECB
:100D00001B48FFF7ADFEE069FFF770FE1948FFF7DB
:100D1000A7FE606BFFF76AFE1448FFF7A1FEE562CD
:100D2000256300224FF4FA710120A56200F074FEE1
:100D300000220C2100F0CCFD0F4A00210C20E563BD
:100D400000F07EFDBDE8704000F0A2BCC50B0000C5
:100D500024000020080B00003C0B0000480B0000A2
:100D6000540B0000580B0000640B0000880B0000BF
:100D7000940B0000A40B00002117000010B5214CBB
:100D800020604FF47A7060606420606114202062FB
:100D90000A206062FFF7B0FD0120FFF761FD02202D
:100DA00000F0B4FB032000F007FC0A20FFF76FFE01
:100DB0001548FFF7FFFC154A00210B2000F040FD0D
:100DC000134A0021092000F03BFD4FF41650FFF7B5
:100DD0000BFE4FF41650FFF707FE00224FF4FA7196
:100DE000012000F019FE00220C2100F071FD00200E
:100DF0000146E063074A0C2000F022FDBDE81040E8
:100E000000F046BC2400002021130000910C0000DB
:100E1000C50B00002117000005494FF0FF300860A6
:100E200004490120086040BF20BF20BF7047000078
:100E3000000400400005004030BF704770470000CC
:100E400002494FF0FF30C1F80803704700600040CE
:100E500000220B2808BF11460BD00C2808BF012127
:100E600007D0182808BF022103D019280CBF03217E
:100E70007047880000F1804000F5C040C0F80021B4
:100E800070470000002301220B2808BF19460BD031
:100E90000C2808BF114607D0182808BF022103D02C
:100EA00019280CBF03217047880000F1804000F52D
:100EB000C040C0F8003102FA01F00249C1F808034D
:100EC0007047000000600040800000F1A040D0F8B2
:100ED000001721F44031C0F80017D0F8001741F492
:100EE0004031C0F800177047002201230B2808BFCB
:100EF00011460BD00C2808BF194607D0182808BF88
:100F0000022103D019280CBF03217047DFF83CC031
:100F10004CEA002C880000F1804000F5C040C0F889
:100F200010C5C0F8002103FA01F00949C1F8040313
:100F300008490878002818BF704740224FF0E02089
:100F4000C0F880228430C2670B7070470100020035
:100F500000600040980000202649886072B6496809
:100F600029B3254A11F001004FF00C0307D0D2F845
:100F700000C04FEA8C0C0CF1A04CCCF80037884232
:100F800015D200BF52F820C04FEA8C0C0CF1A04CD7
:100F9000CCF8003702EB800CDCF804C04FEA8C0C74
:100FA0000CF1A04CCCF80037801C8842EAD3134ADD
:100FB0004FF0FF30C2F808030020024607E083002C
:100FC00003F1804303F5C043C3F80021401C88426D
:100FD00001D20828F3DB4FF0E0204021C0F8801157
:100FE00000F5C070BFF34F8FBFF36F8FC0F80011D3
:100FF00062B6704798000020A40000200060004006
:10100000012202FA00F011F0010F14BF0149024958
:1010100008607047080500500C05005001490F207A
:101020000860704714050050012101FA00F00349DF
:101030000968084018BF01207047000010050050E3
:10104000012202FA00F000290CBF0249024908609F
:10105000704700001C050050180500500121016078
:10106000202101714FF0FF3181607047EFF3108054
:1010700000280CBF0120002072B6704762B670478E
:101080000C4910B40120C864DFF82CC0DCF8002043
:101090000A4B9C68DC68C864DCF8000000219042C0
:1010A00022BF002110BC70479A68DB68081810BC8A
:1010B00051417047009000404C950040880000204E
:1010C000202101714FF0FF3310218360016011482E
:1010D00001214160C160DFF840C00322CCF800204C
:1010E000ACF1040C0022CCF80020DFF830C0CCF8C2
:1010F0000020DFF82CC0CCF800300B04C0F804331B
:10110000C0F800224FF0E0234215C3F8002101602F
:101110007047000000900040089500401095004086
:101120004095004070B4002401231C4A002814BFDD
:101130004FF0010C4FF0000CD360536014D0184EE8
:101140004FF003053560A6F104052C60154D4FF0F6
:1011500004042C60144CA0F1010020604FF4803096
:10116000C2F80403C2F800324FF480704FF0E0245C
:10117000BCF1000F09D0DFF834C0CCF80010C4F87F
:101180000001D360136070BC70475360C4F88001E5
:10119000BFF34F8FBFF36F8F70BC7047008000406C
:1011A00008850040108500404085004088000020F0
:1011B0002C4A00211160B0F5164F08BF4FF41D00F6
:1011C0003FD022DCB0F5165F08BF274839D011DCCC
:1011D000B0F5966F08BF4FF49E2032D0B0F5166F71
:1011E00008BF4FF41D202CD0B0F5965F08BF1F48F4
:1011F00027D024E0B0F5615F08BF1D4821D0B0F5CD
:10120000964F08BF1B481CD019E0B0F5613F08BFDE
:101210004FF06C7015D006DCB0F5614F08BF4FF48D
:101220006B000CD10DE0B0F5E12F08BF4FF0E86086
:1012300007D0B0F5612F08BF4FF0706001D04FF0BC
:10124000EB700D4A10600D4A062010600C4A082011
:1012500010600C4A10600C48C0F82011C0F8101142
:10126000704700006C2500400050270000B01300BC
:1012700000F03A0000A04E00242500400C2500405C
:101280001425004000250040002000400949087056
:10129000094801600121001D016008480022C0F8D2
:1012A00020218160D0F820110029FBD0C0F8202136
:1012B00070470000B400002044250040002000409A
:1012C00002490148086070473546526E00060140E9
:1012D0004FF0FF31074A01EBC03009211160064988
:1012E0000860081D016841F0010101600349012007
:1012F000086070470C0501400405014000000140F2
:1013000010B5FFF74BFB002804BF012010BDFFF70D
:1013100085FEFFF7C7FA002818BFFFF72FFDFEE78D
:10132000B1F1FF3F08BF704770B5304EB269002A77
:1013300039D00C4601460220FFF7CAF900210D20E2
:1013400000F08AF8002C18BF012C26D04FF00000C6
:1013500030613568012D12DCE8B20121FFF78CFA0B
:10136000FFF770FAFFF76EFA5FF00204FFF76AFA10
:10137000641CB4F5FA7FF9D96D1E012DECDD3068DF
:1013800001240128B8BF70BDE0B20021FFF774FA54
:101390003068641CA042F7DA70BD611CBDE8704083
:1013A0000A2000F059B83568012D12DCE8B201219D
:1013B000FFF762FAFFF746FAFFF744FA5FF002041C
:1013C000FFF740FA641CB4F5FA7FF9D96D1E012DC0
:1013D000ECDD30680124012807DBE0B20021FFF7D3
:1013E0004BFA3068641CA042F7DAFEE724000020C4
:1013F00017490023FF288A6A0DD0D1F808C0BCF134
:10140000000F01D0012814D0D1F80CC0BCF1000F9E
:1014100001D002280DD08B630B6B5B1C0B630C4B54
:10142000FF285B6A06BF584202EB4000D01A886270
:101430007047886B064B401C88631B6A0528ACBF4D
:1014400003FB0020D0188862C86A401CC86270473D
:1014500024000020704770472DE9F041174F0446E3
:1014600097F80108421C02F07F0697F80028B24264
:101470000DD1D7F80408FFF757FA012401212046BF
:10148000FFF7FAF9601CC4B2042CF7D9FEE707EBAA
:1014900000152C706960FFF775FAC5E9020187F83D
:1014A00001680E2C28BFBDE8F081054850F82410D3
:1014B000491C40F82410BDE8F0810000C80000205D
:1014C000D0080020104B10B493F800C893F80148DE
:1014D000A44502BF002010BC704703EB0C1C9CF815
:1014E00000400470DCF804000860DCE90201C2E995
:1014F000000193F80008401C00F07F0083F800080A
:1015000010BC012070470000C8000020DFF854C064
:1015100030B400218CF800188CF801180CF104028A
:10152000CCF804086346101D4FF0800C03F8101B24
:10153000002442F8101BE0E80444BCF1010CF5D192
:1015400009488160C160016141618161C1610162DD
:1015500041628162C162016341638163C16330BCE6
:1015600070470000C8000020C808002010B5114CCA
:101570000728626817D000221146104600F04CFA86
:101580000721626800F0A4F960680022401C6060D6
:1015900046F2A811104600F03FFA6268BDE810401C
:1015A000072100F095B9914218BF10BDBDE8104069
:1015B000FFF738B90C0000202DE9F041304C4FF016
:1015C000000C304AC4E9000C154605F114016046D0
:1015D0005FF00E0300EB400602F818CB05EBC606E1
:1015E00001F818CB401CC6F804C05B1EF2D1264A95
:1015F0000021072000F024F924A000260078224FC3
:101600000E2828BFBDE8F08100EB400005EBC002CA
:101610001178042903D32068FFF786F9FEE7002339
:101620000D461846814200DDFBB14B1B002BC8BFA5
:101630004FF0000C0FDD00BFA1EB0C0402EB84089F
:1016400052F82400C8F80400A0185B1EC47C04757E
:101650000CF1010CF0D102EB8500476050190675C2
:101660001078401C1070BDE8F08102EB000C9CF873
:1016700014C0B44584BF05460123401CD2E70000D6
:101680000C000020280900206D1500000D0000004E
:10169000002286B046F2A811104600F0BDF91D499F
:1016A0004A68072100F014F91B4F02AE04AA01A9F1
:1016B0006846FFF707FF48B318A09DF800100068C0
:1016C00002900020325C8A4218BF01291BD000F131
:1016D00001000128F6DB00BF9DF80000002400EBAC
:1016E000400007EBC00528780028DFDD05EB84000B
:1016F00042681AB19DF80000019990472878641C4F
:10170000A042F3DCD2E7FFF7B9F9E5E7FFF79AF873
:10171000CCE700000C000020280900200D0000008C
:1017200070B51C4C2168E06B884208DA401CC0B2DE
:101730000121FFF7A1F8E06B401CE06370BD0022BF
:101740001146104600F068F900220C2100F0C0F8A4
:10175000AFF233010C2000F021F8206801250128A8
:1017600007DBE8B20021FFF787F820686D1CA8426C
:10177000F7DA0120A0610022616800F04DF9002233
:101780000A2100F0A5F8BDE870400021024A0A20B5
:1017900000F056B824000020C50B00002DE9F00130
:1017A0000E2824BFBDE8F001704700EB4000002385
:1017B000224A02EBC0001A4690F800C0BCF1000FAC
:1017C000C7BF002600F11307BDE8F001704700BF56
:1017D00000EB820CDCF804C08C4521D10378A3EB2C
:1017E000020CACF10103002BC4BF0023ACF1010CCF
:1017F0000DDDD41800EB84050444D5F80880C5F845
:101800000480657D5B1C2575BCF1010CF1D103786A
:1018100040F823600378DE5503785B1E03700123D4
:1018200090F800C0521C9445DCBFBDE8F001704741
:10183000002BCDD0BDE8F001704700002809002042
:101840002DE9F0410E2824BF0020BDE8F08100EB17
:1018500040001D4B03EBC0031878042804D31B4839
:101860000068FFF761F8FEE700240646A4466045DD
:1018700000DDFCB1A0EB060CBCF1000FC8BF0024DA
:101880000DDD051B03EB850853F825701D44C8F8D2
:101890000470EF7C641C2F75BCF1010CF1D103EBDB
:1018A00086004260981901751878401C1870012054
:1018B000BDE8F08103EB0C052D7D8D4284BF6646AB
:1018C00001240CF1010CD2E7280900200C000020B3
:1018D0002DE9F047C60F30F07F442D484FF000054A
:1018E0001CBF00234FF0010826D000BF03EB830C80
:1018F00010F82C7047B100EB8C0797F80C908945D5
:1019000004BF3F6997420FD100F82C8000EB8C0C8C
:101910004FF001058CF80160CCF80440CCF8084089
:101920008CF80C10CCF8102003F10103282B1CDAE2
:10193000002DDBD0BDE8F087154B00F10C0C2824FE
:10194000002510301E7836B19CF800608E4202BF30
:10195000066896421D7000F1140003F11403641E22
:101960000CF1140CEED1BDE8F087002D18BFBDE8D6
:10197000F08708480068FEF7D7FF07A0FFF770F868
:1019800008A0FFF76DF80DA0FFF76AF8FEE700006A
:10199000780A0020140000205B4552524F525D200F
:1019A000000000004F564552464C4F5720444520FA
:1019B000414C41524D415321210000000D0A0000CD
:1019C0002DE9F0470025DFF84880124EA94600BFF8
:1019D00005EB850716F82700A0B106EB8704A06881
:1019E0000A2888BF0A380CD8D8F8042012B1207B06
:1019F000216990476078002814BF606806F8279036
:101A000000D0A0606D1C282DE2DBBDE8F08700004F
:101A100014000020780A0020030021F07F4002F02B
:101A20007F0140EA016018BF40F0004070470000AD
:101A300070B5154602460C480C4B4FF0140CC0E92B
:101A4000002100241C7503F8284FBCF1010CF9D1CA
:101A50002A460A20FEF7AEFF2846BDE87040044A39
:101A60000021FFF7EDBE000014000020640A0020F2
:101A7000C11900000D0000000E0000000F00000062
:101A8000100000001C0000001D0000001E000000EF
:101A90001F0000000B0000000C00000018000000F8
:101AA00019000000C41A000000000020BC00000063
:101AB0009C060000801B0000BC000020DC4C0000E5
:101AC000AC06000000000000000000000000000064
:101AD0000000000000000000000000000000000006
:101AE00001000000000000000000000000000000F5
:101AF00000000000000000001E00000000000000C8
:101B000000000000000000000000000000000000D5
:101B100000000000000000000000000000000000C5
:101B200000000000000000000303030302010201A3
:101B3000020102010201020102010201020102018D
:101B4000020102010201000000000000000000008C
:101B50000000000000000000000000000000000085
:101B600004000000000000000B0000000C0000005A
:101B70001800000019000000000000000090D003D1
:0400000500000201F4
:00000001FF
