:020000040000FA
:10000000904D0020150200001D0200001F0200009C
:100010002102000023020000250200000000000071
:1000200000000000000000000000000027020000A7
:1000300029020000000000002B0200002D02000039
:100040002F0200002F0200002F0200002F020000EC
:100050002F0200002F020000290300002F020000E1
:10006000B1050000E50500002F0200002F0200008E
:100070002F0200002F0200002F0200002F020000BC
:100080002F0200002F0200002F0200002F020000AC
:100090002F0200002F0200002F0200002F0200009C
:1000A0002F0200002F0200002F0200002F0200008C
:1000B0002F0200002F0200000000000000000000DE
:1000C0002F0200002F0200002F0200002F0200006C
:1000D0002F0200002F0200002F0200002F0200005C
:1000E0002F0200002F0200002F020000000000007D
:1000F000000000002F020000000000002F0200009E
:1001000000000000000000000000000000000000EF
:1001100000000000000000000000000000000000DF
:1001200000000000000000000000000000000000CF
:1001300000000000000000000000000000000000BF
:1001400000000000000000000000000000000000AF
:10015000000000000000000000000000000000009F
:10016000000000000000000000000000000000008F
:10017000000000000000000000000000000000007F
:10018000000000000000000000000000000000006F
:10019000000000000000000000000000000000005F
:1001A000000000000000000000000000000000004F
:1001B000000000000000000000000000000000003F
:1001C000000000000000000000000000000000002F
:1001D000000000000000000000000000000000001F
:1001E000000000000000000000000000000000000F
:1001F00000000000000000000000000000000000FF
:10020000DFF80CD000F07EF80048004767160000C9
:10021000904D00200648804706480047FEE7FEE76D
:10022000FEE7FEE7FEE7FEE7FEE7FEE7FEE7FEE7A6
:1002300091030000010200002DE9F05F0546002057
:1002400092469B4688460646814640241BE0284647
:1002500041464746224600F045F853465A46C01AE2
:10026000914110D311461846224600F02CF82D1A61
:1002700067EB01084F4622460120002100F023F8D9
:1002800017EB00094E41201EA4F10104DFDC4846B3
:1002900031462A464346BDE8F09F30B50B4601463D
:1002A00000202022012409E021FA02F59D4205D315
:1002B00003FA02F5491B04FA02F52844151EA2F1BF
:1002C0000102F1DC30BD202A04DB203A00FA02F101
:1002D000002070479140C2F1200320FA03F3194334
:1002E00090407047202A04DB203A21FA02F00021D6
:1002F000704721FA02F3D040C2F120029140084336
:1003000019467047064C074D06E0E06840F00103CF
:1003100094E8070098471034AC42F6D3FFF774FF17
:100320003C2300005C23000070B500241BE0104952
:1003300051F8240001F0BBFB0546002D12DB0D48EF
:1003400050F8250070B10C48006830B1084951F8E8
:1003500024002946084A12689047054951F82400AC
:1003600000F024FF641C054800688442DFD370BDA0
:1003700074000020006100408800002084000020FC
:1003800001480249086070470090D00390000020A7
:1003900010B501F00DFB40B10020774908604FF027
:1003A0008041C1F810017549086001F023FB002865
:1003B00055D073480068734908607148001D006893
:1003C000091D08606E4808300068091D08606C4807
:1003D0000C300068091D0860694810300068091D6C
:1003E0000860674814300068091D086064481830C8
:1003F000006864492031086061481C300068091DAC
:1004000008605F4820300068091D08605C4824309F
:100410000068091D08605A4828300068091D0860F6
:1004200057482C300068091D086055483030006876
:10043000544940310860524834300068091D086052
:100440004F4838300068091D08604D483C3000684E
:10045000091D08604A4840300068091D086001F025
:10046000EBFA10B148484949086001F019FA10B197
:10047000FB204749086001F035FA38B1454801785A
:100480004548006861F303004349086001F04CFAF5
:1004900018B14FF400704149086001F067FA40B1AB
:1004A0003F48006800F0010018B16FF001003C49BE
:1004B00008603C48006840F470003A49086000BF9A
:1004C00000BF00BFBFF34F8F00BF00BF00BF00BF22
:1004D00000BF00BFBFF36F8F00BF00BF00BF00BFF2
:1004E00001F0BCF920B1304800682449203108608F
:1004F00000BF2D480838006800F0004028B92A489D
:10050000001F006800F0004090B3012001F0B6FA2F
:10051000122025490839086001F0BAFA12214FF07B
:100520001020C0F8041201F0B3FA002001F0A6FA7E
:1005300000BF00BF00BF00BF00BFBFF34F8F00BFB1
:1005400000BF00BF17487C38006800F4E06017491E
:100550000843001D13497C39086000BF00BF00BF7D
:10056000BFF34F8F00BF00BF00BF00BF00BFFDE75C
:10057000FFE7FFF705FF10BD0C0100403805004004
:100580000404001020C50040488103008C56004040
:1005900018F5004058020010E40E0040409602405A
:1005A0000004004088ED00E0081200100000FA0589
:1005B00008B50948006868B1002007490860074885
:1005C000D0F84001009000BF0548006810B1044811
:1005D0000068804708BD0000408100400080004066
:1005E0007000002008B50F48006880B100200D4958
:1005F00008600D48036840685A1C40F100000A4931
:100600000A6048600948D0F84001009000BF0648E1
:1006100002684068521C40F1000003490A604860CB
:1006200008BD00004091004068000020009000409C
:100630000FB4084B10B504A902AA039800F03AF8C9
:10064000044602A9002000F011F9204610BC5DF814
:1006500014FB00006D080000002807DB00F01F02FB
:1006600001219140024A430942F8231070470000DB
:1006700080E200E000280DDB00BF00BF00F01F0299
:10068000012191404209920002F1E022C2F80011DA
:1006900000BF00BF704702E008C8121F08C1002A4F
:1006A000FAD170477047002001E001C1121F002AF3
:1006B000FBD170472DE9FF4F8BB09A460F46054698
:1006C000002606E025280BD052460D9990476D1C58
:1006D000761C28780028F5D10FB03046BDE8F08FA1
:1006E0000024A0460122604900E0044315F8013FC0
:1006F000203B02FA03F00842F7D128782E2817D1C0
:1007000015F8010F44F004042A280ED06FF02F02D0
:100710002878A0F1300109290AD808EB880102EBFA
:10072000410100EB01086D1CF2E757F8048B6D1CCA
:10073000287869283ED006DC0028CDD063280BD06D
:10074000642804D136E0732810D075284BD0524667
:100750000D999047761C85E017F8040B8DF8000082
:1007600000208DF80100E946012003E057F8049BC2
:100770004FF0FF3061074FF0000401D40AE0641C21
:1007800044450DDA8442FADB19F804100029F6D149
:1007900006E0641C8442FCDB19F804100029F8D13F
:1007A000264404E019F8010B52460D999047641E47
:1007B000F8D257E001CF4FF00A0B002802DA40428E
:1007C0002D2102E0210504D52B218DF824100121D3
:1007D00003E0E10705D02021F7E70DF1200908919A
:1007E0000CE00021F9E701CF4FF00A0BF9E7594679
:1007F000FFF753FD01F1300209F8012D0028F6D171
:10080000ADEB090000F1200B600701D44FF00108A7
:10081000D84502DDA8EB0B0000E000208046002454
:1008200006E009A85246005D0D999047641C761CAD
:1008300008988442F5DB04E0302052460D99904739
:10084000761CB8F10001A8F10108F5DC05E019F803
:10085000010B52460D999047761CBBF10001ABF19C
:10086000010BF4DC6D1C34E7092801000A68531CF5
:100870000B6010707047000010B50548006828B183
:10088000002104480068024A1268904710BD000029
:100890000000002004000020014604488078C1F1D7
:1008A000020301229A401040704700002C000020F3
:1008B0002DE9F04781460E463746384600F088F865
:1008C0000446002C01DABDE8F087364800EBC40589
:1008D000287830B1012816D0022826D003285CD110
:1008E00042E0384600F072FC00221421104601F06C
:1008F00081FC8046E01CC1B23A46404601F088FBCC
:10090000012028704AE000220A21012001F072FC37
:100910008046384601F0E1F8E01CC1B23A46404654
:1009200001F076FB0220287038E0384600F020FD08
:10093000012818D100BF1CA000F0DFF91DA000F0B5
:10094000DCF922A000F0D9F900BF002214211046E2
:1009500001F050FC8046E01CC1B23A46404601F02E
:1009600057FB0320287019E0384601F0B5F83846E7
:1009700000F01CFC384600F053FC022C0AD1002287
:100980001146104601F036FC804600220B214046FD
:1009900001F03EFB0020287000E000BF00BF00BF58
:1009A00091E70000E40800205B44454255475D2084
:1009B000000000004D5545535452454F20504152C0
:1009C000412053414C49524D450000000D0A0000A2
:1009D0000146002007E0064A02EBC00252688A4244
:1009E00000D17047401C0428F5DB4FF0FF30F8E7DA
:1009F000E408002070B50546284600F04FFC0122AF
:100A00001749042001F002FC002420E000201549D1
:100A100001F83400144850F8240001EBC401486088
:100A2000114951F8240000F0FBFB0F4951F8240054
:100A300000F0E4FB0C4951F82400002100F0A6FC72
:100A4000E11CC8B2094A002101F094FA641C042C8C
:100A5000DCDB064A0021022001F08CFA70BD0000A8
:100A6000FD1A0000E40800202C230000B10800005B
:100A700010B500F093FB00F091FB00F07BFB024807
:100A8000006800F087F810BD0800002010B5054888
:100A9000006800F04BF800F07DFB0248006800F0B1
:100AA00079F810BD0800002010B5044600F074FB72
:100AB00000F054F80148046010BD00000800002058
:100AC00070B504460D46204600F0C4FD08B900206C
:100AD00070BD284600F0B8FD0646611E034A52F874
:100AE0002100314600F02EFC0120F1E70C2300002C
:100AF00070B5012413E0611E0B4A52F82100012158
:100B000000F044FC002000F09FFD0546611E064AEF
:100B100052F82100294600F015FC601CC4B2042CD8
:100B2000E9DD042070BD00000C23000070B5044610
:100B3000204600F08BFE08B9002070BD002000F0B8
:100B40007DFD0546611E044A52F82100294600F049
:100B5000F9FB0120F1E700001C23000070B501241F
:100B600012E0611E0A4A52F82100012100F00EFC39
:100B7000002000F063FD0546611E054A52F8210081
:100B8000294600F0DFFB641C042CEAD9042070BD68
:100B90001C23000070B50446204600F057FE08B93B
:100BA000002070BD012000F049FD0546611E044A89
:100BB00052F82100294600F0C5FB0120F1E70000B2
:100BC0001C23000010B505480068401C034908605C
:100BD00000F0F2FB0249087010BD00001C0000206C
:100BE0002000002010B50848006820B106480068C1
:100BF000401E054908600448006820B90348007891
:100C000008B100F0E4FB10BD1C0000202000002013
:100C100070B500F0DFFB0546034804682246002358
:100C20002846FFF709FB70BD9400002010B5054869
:100C300000F002FC0348006808B1012010BD00204C
:100C4000FCE700009400002070B504460D461646EF
:100C50000948056009480660094800F0A5FB4FF403
:100C60007A7204FB02F1064A126801FB02F00549A0
:100C700000F06CFC70BD00000000002004000020AB
:100C8000940000207908000010B50446204600F0CA
:100C900071FC10BD10B50446204600F08FFC10BD5D
:100CA000FEB5044600250026002C01DA0126644228
:100CB0001CB93020FFF7EEFFFEBD0DE00A2094FBCB
:100CC000F0F100FB11403030C2B228466D1C0DF827
:100CD00000200A2094FBF0F4002CEFDC16B12D204C
:100CE000FFF7D8FF05E0691E0D461DF80100FFF76C
:100CF000D1FF002DF7DC00BFDEE710B5044603E0AE
:100D000014F8010B00F05AFC20780028F8D110BD2F
:100D100010B5FFF757FF00F071FCFFF763FF10BD40
:100D200010B50446FFF74EFF204600F06FFCFFF7BA
:100D300059FF10BD10B519A0FFF7DFFF25A0FFF781
:100D4000DCFF26480068FFF7ABFF25A0FFF7D5FFC3
:100D500026A0FFF7D2FF26480068FFF7A1FF25A0D5
:100D6000FFF7CBFF26A0FFF7C8FF2E480068FFF76C
:100D700097FF2DA0FFF7C1FF2EA0FFF7BEFF314860
:100D80000068FFF78DFF30A0FFF7B7FF3648006817
:100D9000FFF786FF24A0FFF7B0FF10BD5475206455
:100DA0006573656D7065676E6F20656E2065737421
:100DB0006120706172746964612068612073696484
:100DC0006F20656C207369677569656E74650D0ABF
:100DD00000000000436F6E20000000004C00002067
:100DE000206163696572746F730D0A0059200000F9
:100DF000500000202066616C6C6F730D0A000000CB
:100E000048617320636F6E7365677569646F2075E1
:100E10006E612070756E74756163696F6E206465B4
:100E200020000000480000202070756E746F730D64
:100E30000A0000004C6F2071756520656E20747586
:100E4000732000003C0000202070617274696461AE
:100E5000732C2073756D6120756E20746F74616CD6
:100E6000206465200000000054000020F0B591B01F
:100E700007460C4600221146104601F0BBF9064613
:100E800000220921304601F0C3F825462A460AA16E
:100E900001A8FFF7CDFB00BF0CA0FFF72EFF01A8B4
:100EA000FFF72BFF0CA0FFF728FF00BF284600F03C
:100EB0004FFC11B0F0BD0000536F7920656C2062CB
:100EC0006F74C3B36E202564000000005B4445428C
:100ED00055475D20000000000D0A000070B5A0B06D
:100EE00004460D463A4840783949887008460078EB
:100EF000487038480068052801DB00200870364833
:100F000034490968405C324908700846827833A148
:100F100010A8FFF78DFB00BF35A0FFF7EEFE10A86D
:100F2000FFF7EBFE35A0FFF7E8FE00BF284800788A
:100F3000C0F340010120FFF7C3FD2548007800F011
:100F400001010220FFF7BCFD21484078C0F34001B9
:100F50000320FFF7B5FD1E48407800F00101042092
:100F6000FFF7AEFD1B480068401C1A4908600846A0
:100F70000068022820DD1648827818A16846FFF72D
:100F800057FB00BF1AA0FFF7B8FE6846FFF7B5FE93
:100F90001AA0FFF7B2FE00BF19480068194A12688C
:100FA000811A0022104601F025F906460022092187
:100FB000304601F02DF800BF06480068072805DD1F
:100FC00000210B2000F09AFD20B070BD00BFFBE7B0
:100FD0002C000020300000205C0000204C612070BC
:100FE00061727469747572612065732025640000F4
:100FF0005B44454255475D20000000000D0A00009B
:10100000280000203400002070B505460E4600BFC1
:101010000CA0FFF772FE0EA0FFF76FFE13A0FFF704
:101020006CFE00BFFF2000F093FB0022114610462B
:1010300001F0E0F8044600220921204600F0E8FF14
:1010400070BD00005B44454255475D200000000034
:1010500054494D4F55542C2041505249455441203C
:10106000454C20424F544F4E212100000D0A0000F4
:1010700070B505460E4600221146104601F0BAF83A
:10108000044600220A21204600F0C2FF10490A202F
:1010900000F034FF00200F4908600F480068401C32
:1010A0000D4908600D4800680D49096808440B495E
:1010B000086000200B490860FFF73CFE00200A4949
:1010C00008600A4908600649086000F0E9FC70BD44
:1010D000DD0E0000380000203C00002054000020FD
:1010E00048000020300000204C000020500000206C
:1010F00070B50446184804604FF4FA601749086058
:101100006420174908601420164908600A2016490F
:101110000860FFF723FD0120FFF7C6FC022000F066
:101120005DFD032000F0DCFDFFF772FD054600F0D9
:10113000D5FC0A20FFF7F4FD0C48FFF75BFC0C4AD6
:1011400000210B2000F016FF4FF41650FFF79CFD16
:1011500000F0A6FC70BD0000240000202800002044
:10116000340000204000002044000020E116000070
:10117000711000004FF0FF3004490860012004495D
:10118000086040BF20BF20BF70470000000400403F
:101190000005004030BF7047704700004FF0FF303F
:1011A00001490860704700000863004070B50546BB
:1011B000284600F07CFC0446002C03DB002102489A
:1011C00040F8241070BD00000061004070B5054675
:1011D000284600F06CFC0446002C00DA70BD0021AB
:1011E000044840F824100120A0400349086000BFD3
:1011F000F4E700000061004008630040074951F82F
:10120000201021F44032054941F8202051F82010E7
:1012100041F44032014941F8202070470007005056
:1012200070B50546284600F042FC0446002C00DA62
:1012300070BD012040EA052040F40031134840F819
:1012400024100021124840F824100120A040114928
:10125000086011480078B8B90620FFF7FDF90620AC
:1012600000280DDB00BF00BF00F01F0201219140EC
:101270004209920002F1E022C2F8001100BF00BF53
:1012800000BF01200449087000BFD1E7106500408D
:1012900000610040046300408C00002010B504464B
:1012A0002148046072B6002007E00C221F49204B41
:1012B00053F8203041F82320401C1E490968884219
:1012C000F3D34FF0FF301C490860002004E00022F7
:1012D0001A4941F82020401C16490968884201D269
:1012E0000828F4DB0620002817DB00F01F0201218C
:1012F0009140134A430942F8231000BF00BF00BFCA
:10130000BFF34F8F00BF00BF00BF00BF00BF00BFD3
:10131000BFF36F8F00BF00BF00BF00BF0620FFF705
:101320009BF962B610BD0000880000200007005045
:101330007400002084000020086300400061004029
:1013400080E100E0012303FA00F201F0010313B190
:10135000034B1A6002E0024B1B1D1A60704700002D
:10136000080500500F20014908607047140500501F
:101370000146012000FA01F203480068104008B15C
:10138000012070470020FCE710050050012303FAFC
:1013900000F211B9034B1A6002E0024B1B1F1A60E6
:1013A000704700001C0500500121016020210171DF
:1013B0004FF0FF318160704700BFEFF3108211469C
:1013C00009B9012200E00022104672B6704762B6E9
:1013D00070470000F0B501211448C1641448056845
:1013E00014490C68496801211048C164104802681A
:1013F000AA4212D20F480368406800210E46012716
:10140000A3FB060C01FB01C103FB07160746304690
:10141000BE1840F100013046F0BD0020A4FB0010D2
:101420008F1840F100013846F6E7000000900040B8
:101430004C9500406800002010B504462020207123
:101440004FF0FF30A0601020206001200F4948605D
:10145000C86003200E4908600020091F08600C497D
:1014600008310860401E0A49383108604FF4803066
:101470000849086000200549C1F800020920FFF76B
:10148000F9F801200149086010BD000000900040FB
:10149000089500400493004001210E4AD16051603C
:1014A00000B9704703210C4A11600021121F11601E
:1014B0000421094A08321160411E074A383211607E
:1014C0004FF48031054A11600121024AC2F800122E
:1014D00000BFE6E70080004008850040048300402C
:1014E00010B504463CB10820FFF7C4F801201249AA
:1014F000C86008601FE001200F49486008200028EC
:1015000017DB00F01F02012191400C4A430942F809
:10151000231000BF00BF00BFBFF34F8F00BF00BF4D
:1015200000BF00BF00BF00BFBFF36F8F00BF00BF91
:1015300000BF00BF00BF10BD0080004080E100E0A0
:1015400001490860704700007000002070B5044633
:101550000D460CB1012000E0002006462046FFF7B2
:101560009BFF16B12846FFF7EBFF3046FFF7B8FFA9
:1015700070BD000000B5024600200D49086010460D
:1015800000F06AFE0A4948390860062108486038B8
:1015900001600821064858380160082004496C3968
:1015A00008600020034908600349C1F8100100BD2C
:1015B0006C25004020210040002000400B490870AD
:1015C0000B4A116001220A49091D0A600021094ADB
:1015D00011600121084A916000BF0649096800298D
:1015E000FBD00021034A1160704700008D000020ED
:1015F00044250040202100400020004001480249CD
:10160000086070473546526E000601400122C2EB69
:10161000C0310922074B1A60064A083A1160121DB0
:10162000126842F001021B1F1A600122024B1A606D
:10163000704700000C05014000000140014609B957
:10164000012070470020FCE7014609B901207047DE
:101650000020FCE70146012903DB042901DC01200D
:1016600070470020FCE710B5FFF7E0FA08B9012049
:1016700010BDFFF777FEFFF73BFA044614B1204692
:10168000FFF736FD00BFFEE770B5044600224FF4B9
:10169000FA71012000F0AEFD054600220C2128461B
:1016A00000F0B6FC0020084908602CB9074A002168
:1016B0000C2000F05FFC06E0012C04D1044A00215C
:1016C0000C2000F057FC70BD64000020391E0000A3
:1016D000ED1D00002946204600F088FB00BFFEE714
:1016E00070B505460C46601C58B10648006820B12C
:1016F0002146284600F008F803E021462846FFF777
:10170000E9FF70BD3800002070B505460C4629463B
:101710000220FFF7CDF800210D2000F0EFF90CB109
:10172000012C04D1611C0E2000F0E8F90EE0032C1E
:101730000CD1002240F6B831104600F05BFD0646A1
:1017400000220B21304600F063FC00BF70BD00009A
:1017500010B50446FF2C03D02046FFF79DF828BBA8
:1017600000BF28A0FFF7C9FA29A0FFF7C6FA2CA0EE
:10177000FFF7C3FA00BF00202A4908602A48006822
:10178000401C29490860FF2C08D1284800682849D6
:101790000968A1EB40002649086032E0244800684F
:1017A00022490968401A224908602AE000BF15A0B2
:1017B000FFF7A3FA1FA0FFF7A0FA19A0FFF79DFA01
:1017C00000BF18480068401C1649086008460068B9
:1017D00005280ADB164800681A490968114A126888
:1017E00001FB02001249086006E011480068154933
:1017F000096808440E49086013480068401C1249F3
:10180000086010BD5B44454255475D200000000064
:1018100048452046414C4C41444F2E2E2E0000009E
:101820000D0A000058000020500000204400002055
:1018300048000020484520414345525441444F212F
:1018400021000000400000204C000020014619B19A
:10185000042901D8012070470020FCE70F480268E6
:101860004FF08050D0F83411082A14D1062910D234
:10187000DFE801F0030507090B0D00207047002089
:10188000FCE70020FAE70020F8E70020F6E7012057
:10189000F4E70120F2E70020F0E70000300100103B
:1018A0000F4802684FF08050D0F83411082A14D144
:1018B000062910D2DFE801F0030507090B0D01200E
:1018C00070470020FCE70020FAE70020F8E700203E
:1018D000F6E70020F4E70020F2E70020F0E7000040
:1018E000300100100F4802684FF08050D0F83411DA
:1018F000082A14D1062910D2DFE801F003050709F0
:101900000B0D012070470020FCE70020FAE70020C3
:10191000F8E70020F6E70020F4E70020F2E70020D7
:10192000F0E70000300100100F4802684FF08050CF
:10193000D0F83411082A14D1062910D2DFE801F0BA
:10194000030507090B0D012070470020FCE700206C
:10195000FAE70020F8E70020F6E70020F4E700208F
:10196000F2E70020F0E70000300100100F480268A5
:101970004FF08050D0F83411082A14D1062910D223
:10198000DFE801F0030507090B0D01207047012076
:10199000FCE70120FAE70120F8E70120F6E7012043
:1019A000F4E70120F2E70020F0E70000300100102A
:1019B0000F4802684FF08050D0F83411082A14D133
:1019C000062910D2DFE801F0030507090B0D0120FD
:1019D00070470120FCE70120FAE70120F8E7012029
:1019E000F6E70120F4E70120F2E70020F0E700002D
:1019F000300100100F4802684FF08050D0F83411C9
:101A0000082A14D1062910D2DFE801F003050709DE
:101A10000B0D012070470120FCE70120FAE70120AF
:101A2000F8E70120F6E70120F4E70120F2E70020C3
:101A3000F0E70000300100100F4802684FF08050BE
:101A4000D0F83411082A14D1062910D2DFE801F0A9
:101A5000030507090B0D012070470020FCE700205B
:101A6000FAE70020F8E70020F6E70020F4E700207E
:101A7000F2E70020F0E700003001001000B5014659
:101A80000248016000F004F800BD000004E50140D8
:101A900000BF024800680028FBD0704700E4014006
:101AA00010B50020FFF7F0FD00F054F910BD01461D
:101AB0000B2906D00C2906D0182906D0192908D1DF
:101AC00005E0002070470120FCE70220FAE7032030
:101AD000F8E74FF0FF30F5E7704770470122044BFD
:101AE0001A600022034B1A600122034B1A607047F0
:101AF00004D5004000D1004000D000402DE9F04165
:101B000004460F461D4991F80118481CC11700EB07
:101B10005161C911A0EBC11101F0FF08174890F8FD
:101B20000008404510D11549D1F80408FFF732F8F4
:101B3000012605E001213046FEF7C2FF701CC6B247
:101B4000042EF7DD00BFFEE70C4890F801080B49B2
:101B500001EB00152C706F60FFF75AF8C5E9020120
:101B6000064880F801880F2C06D2054850F824005A
:101B7000401C034941F82400BDE8F081A00000208A
:101B8000A808002070B503460C46134890F80008DA
:101B9000114D95F80158A84201D1002070BD0E48A2
:101BA00090F800080C4D05EB001108781870486893
:101BB0002060D1E90205C2E90005074D95F80058FB
:101BC000681CC51700EB5565ED11A0EBC515024E5D
:101BD00086F800580120E1E7A000002010B501467A
:101BE0000020134A82F8000882F801081046C0F865
:101BF000041800200FE000220D4B03EB00131A70B5
:101C00000B4B03EB00135A600023094C04EB001448
:101C1000A360E360401C8028EDDB002004E000228C
:101C2000044B43F82020401C0F28F8DB10BD0000B7
:101C3000A0000020A80800202DE9F04104460D4630
:101C4000072C06D11B480068854201D1FEF710FF22
:101C50002DE000BF18A0FFF750F81AA0FFF74DF8CD
:101C60001EA0FFF74AF800BF12480068114908603B
:101C700000221146104600F0BDFA07460D48072124
:101C80000268384600F0C4F90A480068401C094957
:101C90000860002246F2A811104600F0ABFA064692
:101CA000044807210268304600F0B2F900BF00BFC7
:101CB000BDE8F081100000205B44454255475D209F
:101CC0000000000041435455414C495A4F20494EB1
:101CD0004143544956494441442121000D0A000022
:101CE00038B505461648056000201649086000BF53
:101CF00010E0002100EB4002134B03F8321000EB20
:101D0000400203EBC202117500EB400203EBC2027A
:101D10005160401C0F28ECDB0C4A0021072000F02A
:101D200029F90BA000680090002406E01DF80400CB
:101D3000064A002100F01EF9641C012CF6DB38BDB8
:101D40000C0000201000002004090020391C0000B5
:101D50000D00000086B0002246F2A811104600F0E7
:101D600049FA06461E4807210268304600F050F93D
:101D700035E002AA04A905A8FFF704FF68B319A07B
:101D80000068019000250DE001A8405D9DF8141049
:101D9000884203D09DF81400012802D1FEF7B8FF55
:101DA00001256D1C012DEFDB9DF8140000EB4000B8
:101DB0000D4901EBC00400250BE0201D50F8250063
:101DC00030B1201D50F825209DF81400049990474B
:101DD0006D1C2078A842F0DC01E0FEF757FEC8E752
:101DE000100000200D000000040900202DE9F04142
:101DF00006460F460F4804680CE0E0B20121FEF7EA
:101E00005FFE002502E0FEF741FE6D1CB5F5FA7F8E
:101E1000F9DD641E012CF0DD012404E0E0B20021B4
:101E2000FEF74EFE641C034800688442F6DDBDE800
:101E3000F0810000240000202DE9F041074688468B
:101E4000274800682749096888420CDA244909783C
:101E5000491CC8B20121FEF733FE21480068401C2E
:101E60001F49086039E000221146104600F0C2F90F
:101E7000064600220C21304600F0CAF8AFF24701B6
:101E80000C2000F03BF8012404E0E0B20021FEF752
:101E900017FE641C134800688442F6DD01201249D5
:101EA0000860002211480168012000F0A3F90546EE
:101EB00000220A21284600F0ABF80D4A00210E202E
:101EC00000F058F80B4A0021092000F053F80A4AA4
:101ED00000210A2000F04EF800BFBDE8F0810000AC
:101EE000640000202400002038000020280000208A
:101EF0006D0E000009100000DD0E0000F0B5034675
:101F00000C460F2B00DBF0BD03EB4301184A02EB3C
:101F1000C1000025002224E0011D51F82210A14239
:101F20001ED111460AE0061D4F1C56F8277046F8D0
:101F3000217010364F1CF75D7754491C0678761EC9
:101F40008E42F0DC00270178491E061D46F82170FC
:101F50000178491E103677540178491E0170012519
:101F6000521C0178914201DD002DD5D000BFCAE797
:101F7000040900202DE9F04706460F4690460F2E33
:101F800002DB0020BDE8F08706EB46001E4901EBAE
:101F9000C0042078042805DB1C480068FEF7FAFD21
:101FA00000BFFEE74FF000092578002008E004F1AB
:101FB0001401095CB94202DD05464FF00109401CDD
:101FC0002178814202DDB9F1000FF0D020780EE0D7
:101FD000411E221D52F82120211D41F82020411EC2
:101FE00004F11402525C04F114010A54401EA84288
:101FF000EEDC201D40F82580103047552078401C2D
:1020000020700120BEE70000040900200C00002021
:102010002DE9F04706460C4615464FEAD67926F0DC
:102020007F474FF0000807BB00201AE000EB80015B
:102030003B4A12F8211099B100EB800102EB8101BB
:10204000097BA1420CD100EB800102EB81010969FF
:10205000A94205D1002100EB8002314B03F8221088
:10206000401C2828E2DBBDE8F08700203CE000EBC4
:1020700080012B4A12F8211091B100EB800112F877
:10208000211081B300EB800102EB8101097BA142A9
:1020900029D100EB800102EB81010969A94222D11B
:1020A000012100EB80021E4B03F8221000EB80019F
:1020B0001A4602EB810181F8019000EB800102EBEE
:1020C00081014F6000EB800102EB81018F6000EB2A
:1020D000800102EB81010C7300EB800102EB8101B6
:1020E0000D614FF00108401C282802DAB8F1000FFA
:1020F000BDD0B8F1000F10D10A480068FEF74AFDC4
:1021000000BF09A0FEF7F9FD0AA0FEF7F6FD0FA03B
:10211000FEF7F3FD00BF00BFFEE700BFA3E700002E
:102120006C0A0020140000205B4552524F525D2083
:10213000000000004F564552464C4F572044452062
:10214000414C41524D415321210000000D0A000035
:1021500070B505460E46002444E004EB8400234994
:1021600011F82000B0B304EB840001EB800080681C
:102170000A280CD904EB840001EB800080680A383F
:1021800004EB8401194A02EB8101886029E01848B8
:10219000006868B104EB8402144B03EB82021169FE
:1021A00004EB840203EB8202107B114A1268904711
:1021B00004EB84000D4901EB8000407858B104EB3A
:1021C000840001EB8000406804EB8401074A02EBC5
:1021D0008101886005E0002004EB8401034A02F8D5
:1021E0002100641C282CB8DB70BD00006C0A0020A4
:1021F0001800002010B5034621F07F4002F07F0454
:1022000040EA04600BB140F0004010BD70B50446D8
:102210000D4616460C4804600C480560002006E098
:10222000002100EB80020A4B03F82210401C2828F2
:10223000F6DB324629460A20FEF706FD054A002154
:102240003046FFF797FE70BD1400002018000020F4
:102250006C0A0020512100000146B1F5164F35D01F
:1022600014DCB1F5165F2BD009DCB1F5966F1FD0E9
:10227000B1F5166F1FD0B1F5965F39D11EE0B1F5FB
:10228000615F1FD0B1F5964F32D11DE0B1F5613FCE
:1022900025D006DCB1F5614F1BD0B1F5E13F27D168
:1022A0001AE0B1F5E12F1DD0B1F5612F20D11CE06E
:1022B0004FF49E201FE04FF41D201CE00F481AE051
:1022C0000F4818E00F4816E00F4814E04FF41D00C7
:1022D00011E04FF46B000EE04FF0EB700BE04FF0AD
:1022E0006C7008E04FF0E86005E04FF0706002E0CD
:1022F0004FF0EB7000BF00BF7047000000B013004C
:102300000050270000F03A0000A04E000D00000031
:102310000E0000000F000000100000001C00000074
:102320001D0000001E0000001F0000000B00000048
:102330000C00000018000000190000005C230000E1
:10234000000000209400000096060000F02300002A
:1023500094000020FC4C0000A606000000000000D5
:10236000000000000000000000000000000000006D
:10237000000000000000000000000000010000005C
:10238000000000000000000000000000000000004D
:10239000000000000000000000000000000000003D
:1023A000000000000000000000000000000000002D
:1023B0000000000000000000030203010300000011
:1023C000000000000000000000000000000000000D
:1023D0000B0000000C0000001800000019000000B5
:1023E0000400000000000000000000000090D00386
:0400000500000201F4
:00000001FF
