:020000040000FA
:1000000000470020150200001D0200001F02000032
:100010002102000023020000250200000000000071
:1000200000000000000000000000000027020000A7
:1000300029020000000000002B0200002D02000039
:100040002F0200002F0200002F0200002F020000EC
:100050002F0200002F020000FD0200002F0200000E
:100060002D060000610600002F0200002F02000094
:100070002F0200002F0200002F0200002F020000BC
:100080002F0200002F0200002F0200002F020000AC
:100090002F0200002F0200002F0200002F0200009C
:1000A0002F0200002F0200002F0200002F0200008C
:1000B0002F0200002F0200000000000000000000DE
:1000C0002F0200002F0200002F0200002F0200006C
:1000D0002F0200002F0200002F0200002F0200005C
:1000E0002F0200002F0200002F020000000000007D
:1000F000000000002F020000000000002F0200009E
:1001000000000000000000000000000000000000EF
:1001100000000000000000000000000000000000DF
:1001200000000000000000000000000000000000CF
:1001300000000000000000000000000000000000BF
:1001400000000000000000000000000000000000AF
:10015000000000000000000000000000000000009F
:10016000000000000000000000000000000000008F
:10017000000000000000000000000000000000007F
:10018000000000000000000000000000000000006F
:10019000000000000000000000000000000000005F
:1001A000000000000000000000000000000000004F
:1001B000000000000000000000000000000000003F
:1001C000000000000000000000000000000000002F
:1001D000000000000000000000000000000000001F
:1001E000000000000000000000000000000000000F
:1001F00000000000000000000000000000000000FF
:10020000DFF80CD000F068F800480047DD1500006A
:10021000004700200648804706480047FEE7FEE703
:10022000FEE7FEE7FEE7FEE7FEE7FEE7FEE7FEE7A6
:10023000AD030000010200002DE9F05F054600203B
:1002400092469B4688460646814640241BE0284647
:1002500041464746224600F02FF853465A46C01AF8
:10026000914110D311461846224600F016F82D1A77
:1002700067EB01084F4622460120002100F00DF8EF
:1002800017EB00094E41201EA4F10104DFDC4846B3
:1002900031462A464346BDE8F09F202A04DB203A37
:1002A00000FA02F1002070479140C2F1200320FAC9
:1002B00003F3194390407047202A04DB203A21FAC7
:1002C00002F00021704721FA02F3D040C2F120026F
:1002D0009140084319467047064C074D06E0E06818
:1002E00040F0010394E8070098471034AC42F6D37D
:1002F000FFF78AFF901C0000B01C00002DE9F05FA2
:10030000DFF8A0A00025DAF80400002898BFBDE8B7
:10031000F09FDFF894B001274FF002084FF0030977
:100320005FF000065BF825000B2808BF34460BD0B1
:100330000C2808BF3C4607D0182808BF444603D005
:10034000192808BF4C4625D1A10001F1804101F5D3
:10035000C041D1F80011E9B1DAF80810002918BF3E
:1003600088475BF825000B2808BF30460BD00C28C7
:1003700008BF384607D0182808BF404603D01928C0
:1003800008BF484606D1800000F1804000F5C0401B
:10039000C0F80061DAF804006D1C8542C2D3BDE8E4
:1003A000F09F0000580000206400002010B44FF0BF
:1003B00080520023D2E94C10082909D14FF0804C1B
:1003C000CCF80C31CCF81031DFF8D4C1CCF80030C7
:1003D000082965D1734B1B68DFF8CCC1CCF800301D
:1003E000724B1B680CF1040CCCF80030704B1B688E
:1003F0000CF1040CCCF800306E4B1B680CF1040CB3
:10040000CCF800306C4B1B680CF1040CCCF80030BD
:100410006A4B1B680CF1040CCCF80030684B1B686D
:10042000DFF8A0C1CCF80030674B1B680CF1040C5E
:10043000CCF80030654B1B680CF1040CCCF8003094
:10044000634B1B680CF1040CCCF80030614B1B684B
:100450000CF1040CCCF800305F4B1B680CF1040C61
:10046000CCF800305D4B1B68DFF874C1CCF800306D
:100470005C4B1B680CF1040CCCF800305A4B1B6829
:100480000CF1040CCCF80030584B1B680CF1040C38
:10049000CCF80030564B1B680CF1040CCCF8003043
:1004A000082908BF5FEA000304D1DFF84CC1514BB3
:1004B000CCF80030082908BF5FEA000304D1DFF858
:1004C0003CC1FB23CCF80030082908BF5FEA0003D9
:1004D00008D14B4B92F85842D3F800C064F3030C98
:1004E000C3F800C0082908BF5FEA000305D1DFF8A0
:1004F00014C14FF40073CCF80030082907D14248EA
:10050000016811F0010F1CBF6FF0010101603F484D
:10051000016841F470010160BFF34F8FBFF36F8F2B
:10052000D2E94C104FF01022082905D1042803D934
:10053000D2F8080236490860D2F8000210F0004FE5
:1005400004BFD2F8040210F0004F24D0314B012038
:100550001860314801680029FCD04FF0120CC2F835
:1005600000C201680029FCD0C2F804C20168002959
:10057000FCD00021196001680029FCD0BFF34F8F27
:1005800026480168264A01F4E06111430160BFF387
:100590004F8F00BFFDE724492248086010BC704718
:1005A000380500400404001020C500400804001075
:1005B0000C040010100400101404001018040010A3
:1005C0001C04001040C5004020040010240400104A
:1005D000280400102C040010300400103404001013
:1005E00060C50040380400103C04001040040010B6
:1005F00044040010488103008C56004018F5004068
:10060000E40E0040409602400004004088ED00E007
:100610005805004004E5014000E401400CED00E015
:100620000400FA050090D0038C0000200A4882B034
:10063000D0F84011002904BF02B070470021C0F873
:100640004011D0F84001009004480068002804BF21
:1006500002B0704702B000470080004078000020E0
:100660000D4881B0D0F840210C4962B10022C0F899
:1006700040218B68CA685B1C42F100028B60CA6033
:10068000D0F8400100908868CA68401C42F100021E
:100690008860CA6001B07047009000407800002078
:1006A00002E008C8121F08C1002AFAD1704770473B
:1006B000002001E001C1121F002AFBD17047000099
:1006C00070B52B4D01262A78052A28BF70BDDFE8BA
:1006D00002F0033F434A4B0001246868844211DC66
:1006E000E0B2012100F072FB00F01AFC00F5487046
:1006F00000F032FCE0B2002100F068FB6868641C86
:100700008442EDDD00F08AFB00F00AFC00F5487041
:1007100000F022FC00F070FB00F002FC00F54870D5
:1007200000F01AFC2E700C24002500F0DDFB294699
:10073000204600F0DBFF00F0E3FB0E4800F08EFCEB
:100740000D4800F08BFCBDE870400C4800F086BC02
:10075000BDE8704000F086B909280CBFFF200846AC
:1007600000F06AFF2E7070BDBDE8704000F0C2B8A6
:1007700000000020B81600003C0A0000D816000057
:1007800010B5002240F6B831104601F037FA0022C9
:10079000BDE810400B2101F055B9002210B51146FB
:1007A000104601F02BFA0022BDE81040092101F0AB
:1007B00049B9000010B518A000F050FC24A000F0CA
:1007C0004DFC254CE06900F00FFC24A000F046FC35
:1007D00025A000F043FC206A00F006FC23A000F0F6
:1007E0003DFC25A000F03AFCA06900F0FDFB2BA029
:1007F00000F034FC2CA000F031FC606900F0F4FB48
:100800002DA000F02BFC606A00F0EEFBBDE810406C
:1008100022A000F023BC0000547520646573656D50
:100820007065676E6F20656E2065737461207061FE
:100830007274696461206861207369646F20656CFB
:10084000207369677569656E74650D0A00000000A4
:10085000436F6E20000000000000002020616369EB
:100860006572746F730D0A00592000002066616C78
:100870006C6F730D0A00000048617320636F6E7324
:1008800065677569646F20756E612070756E74752B
:100890006163696F6E206465200000002070756ED2
:1008A000746F730D0A0000004C6F20717565206530
:1008B0006E20747573200000207061727469646129
:1008C000732C2073756D6120756E20746F74616C6C
:1008D000206465200000000010B509280CBFFF202F
:1008E000084600F0A9FE02490120087010BD000072
:1008F0000000002070B5254C00256069401C606137
:10090000A169606A256108446062214800F0A6FB85
:10091000204800F0A3FBE06900F066FB1E4800F0F1
:100920009DFB1E4800F09AFB206A00F05DFB1C480E
:1009300000F094FB1B4800F091FBA06900F054FB11
:10094000194800F08BFB194800F088FB606900F043
:100950004BFB174800F082FB606A00F045FB124831
:1009600000F07CFBE5612562601CA56105704570A7
:10097000857025700C2400F0B7FA2946204600F057
:10098000B5FEBDE8704000F0BBBA000000000020DA
:1009900018080000500800005C080000680800000B
:1009A0006C080000780800009C080000A8080000FF
:1009B000B808000070B51F4D01246868844211DC3E
:1009C000E0B2012100F002FA00F0AAFA00F5487046
:1009D00000F0C2FAE0B2002100F0F8F96868641C87
:1009E0008442EDDD00F01AFA00F09AFA00F5487042
:1009F00000F0B2FA00F000FA00F092FA00F5487048
:100A000000F0AAFA012028700C25002400F06CFAEE
:100A10002146284600F06AFE00F072FA064800F00F
:100A20001DFB06A000F01AFBBDE870400C4800F06A
:100A300015BB000000000020B8160000434F4D49D0
:100A4000454E5A4120454C204245415421212050D9
:100A50004F44524153205345475549524C4F3F0054
:100A6000D816000070B52A4C651E6078A0702078FA
:100A7000607028690528B6BFD5E90201002001F0A1
:100A8000EDF82070C0B2C0F34001012000F09EF9E3
:100A9000207800F00101022000F098F96078C0F39E
:100AA0004001032000F092F9607800F00101042079
:100AB00000F08CF92869401C286107280CDD0C2601
:100AC000002400F011FA2146304600F00FFE00F03D
:100AD00017FA0420287070BD0228D8BF01200ADD53
:100AE00000224FF42F71104601F088F800220921EE
:100AF00000F0A8FF0220287000224FF44871104631
:100B000001F07CF8BDE8704000220C2100F09ABF93
:100B10000100002070B51B4948601B4A00210B20D2
:100B200000F048FF194A00210C2000F043FF184A4A
:100B30000021092000F03EFF164A0021022000F0AB
:100B400039FF154A0021032000F034FF124A00212A
:100B5000042000F02FFF00F0C9F8801CC0B20F4A3B
:100B6000002100F027FF0C25002400F0BDF92146EC
:100B7000284600F0BBFD00F0C3F9BDE8704000F06E
:100B8000D1BE000000000020F5080000C1060000F2
:100B9000D90800009B070000A10B0000810700009E
:100BA00070B50C24C51E00F09FF92946204600F0C0
:100BB0009DFDBDE8704000F0A3B90000024A014667
:100BC00050785268104700002C000020034802684B
:100BD000002A08BF704700214068104740000020ED
:100BE0002DE9F0470D4608463E49002601274A6890
:100BF0004FF002084FF00309824208BF34460FD07D
:100C0000CA68824208BF3C460AD04A69824208BF8D
:100C1000444605D0CA6982420CBF4C46BDE8F08705
:100C200001EBC40A9AF8000098B101281ED00228EE
:100C30002ED0032818BFBDE8F087284600F054FDE9
:100C4000284600F049FA284600F070FA042C45D1F5
:100C50003AE000221421104600F0D0FFE11C2A46A1
:100C600000F0F0FE8AF80070BDE8F0870022142141
:100C7000104600F0C3FF0646284600F036FDE11C92
:100C80002A46304600F0DEFE8AF80080BDE8F08794
:100C9000284600F0EBFA01284FF000024FF0140153
:100CA000104607D000F0AAFFE11C2A46BDE8F04735
:100CB00000F0C8BE00F0A2FFE11C2A4600F0C2FE10
:100CC0008AF80090BDE8F08700221146104600F037
:100CD00095FF05490022097800F0B4FE8AF800600B
:100CE000BDE8F087900000202C0000200420704711
:100CF0002DE9F041064614460D46194800F04EFA1B
:100D0000184B012218495E605D701C70042000F0D1
:100D100081FF0024154E164D274600BF06F834709B
:100D200006EBC40155F82400486000F0FFF955F8BF
:100D3000240000F0EAF955F82400002100F0A2FA9E
:100D4000E01CC0B20B4A002100F034FE641C042CED
:100D5000E4DBBDE8F0410021064A022000F02ABE93
:100D6000BD0B00002C000020ED16000090000020BC
:100D7000601C0000E10B000010B500F0A5F900F0C8
:100D8000A3F900F08DF903480068BDE8104000F0B9
:100D900099B800003400002010B5054C206800F020
:100DA00067F800F08DF92068BDE8104000F08AB8BF
:100DB0003400002010B5044600F084F900F06AF811
:100DC0000148046010BD00003400002010B508B1D7
:100DD000042801D9002010BD002914BF00210121E1
:100DE000044A02EB800050F8040C00F02BFA0120BA
:100DF00010BD0000701C000070B5074D012400BF3D
:100E000005EB8400012150F8040C00F01BFA601C73
:100E1000C4B2042CF4D970BD701C000070B5074D2D
:100E2000012400BF05EB8400002150F8040C00F001
:100E300009FA601CC4B2042CF4D970BD701C000007
:100E400070B50A4E012400BF06EB8405012155F858
:100E5000040C00F017FA55F8040C012100F0F2F927
:100E6000601CC4B2042CEFD9042070BD701C0000BB
:100E700008B1042801D900207047054910B501EBDD
:100E80008000012150F8040C00F0DCF9012010BDB5
:100E9000801C000070B50A4E012400BF06EB8405DB
:100EA000012155F8040C00F0EDF955F8040C01216E
:100EB00000F0C8F9641C042CF0D9042070BD0000B7
:100EC000801C000008B1042801D9002070470549A2
:100ED00010B501EB8000002150F8040C00F0B2F9CD
:100EE000012010BD801C000010B5044C6068401C3F
:100EF000606000F029FA207010BD0000380000206A
:100F00000648416819B1491E416018BF7047007812
:100F1000002808BF704700F01FBA0000380000200A
:100F200010B500F01BFA054A00231268FFF784F998
:100F30004FF47A720023FFF77FF910BDB000002054
:100F400010B500F00BFA034A00231268FFF774F99A
:100F500010BD0000B000002070B50E4D044600BF6B
:100F600000F0FCF900232A68FFF766F94FF47A7263
:100F70000023FFF761F9A042F2D300F0EFF900235C
:100F80002A68FFF759F94FF47A720023FFF754F9F2
:100F900070BD0000B000002010B5044800F0FEF95C
:100FA00002480068002818BF012010BDB0000020D2
:100FB00010B504460848C0E90012084800F070F96E
:100FC00006484FF47A7161430068BDE81040484319
:100FD000034900F015BA000040000020B0000020D6
:100FE000CD0B000000F052BA30B5002483B0224689
:100FF0000028BCBF012240426D460028C8BF164BE6
:1010000024D012DD83FB00C14FEAA10CACEBE171EF
:10101000C1F1000C0CEB8C0C00EB4C0000F130002B
:10102000285504F10104081EECDC002A1CBF2D2009
:1010300000F09AFA002CDCBF03B030BD641E285DBE
:1010400000F092FA002CF9DC03B030BD302000F043
:101050008BFA03B030BD00006766666610B50446C3
:101060000078002808BF10BD14F8010B00F07CFACE
:1010700020780028F8D110BD10B5FFF735FF00F03B
:101080008DFABDE81040FFF73BBF10B50446FFF7EF
:101090002BFF204600F08AFABDE81040FFF730BF72
:1010A00005494FF0FF30086004490120086040BF47
:1010B00020BF20BF70470000000400400005004032
:1010C00030BF70477047000002494FF0FF30C1F851
:1010D000080370470060004000220B2808BF11463B
:1010E0000BD00C2808BF012107D0182808BF022107
:1010F00003D019280CBF03217047880000F18040FD
:1011000000F5C040C0F800217047800000F1A04009
:10111000D0F8001721F44031C0F80017D0F80017BC
:1011200041F44031C0F8001770470000002201234D
:101130000B2808BF11460BD00C2808BF194607D052
:10114000182808BF022103D019280CBF03217047BB
:10115000DFF83CC04CEA002C880000F1804000F52C
:10116000C040C0F810C5C0F8002103FA01F00949D9
:10117000C1F8040308490878002818BF70474022C6
:101180004FF0E020C0F88022C0F800210B707047BB
:1011900001000200006000405800002026498860DD
:1011A00072B6496829B3254A11F001004FF00C03CB
:1011B00007D0D2F800C04FEA8C0C0CF1A04CCCF850
:1011C0000037884215D200BF52F820C04FEA8C0C7D
:1011D0000CF1A04CCCF8003702EB800CDCF804C01A
:1011E0004FEA8C0C0CF1A04CCCF80037801C8842E4
:1011F000EAD3134A4FF0FF30C2F80803002002463A
:1012000007E0830003F1804303F5C043C3F80021E6
:10121000401C884201D20828F3DB4FF0E020402137
:10122000C0F8801100F5C070BFF34F8FBFF36F8F10
:10123000C0F8001162B6704758000020640000201A
:1012400000600040012202FA00F011F0010F14BF0B
:101250000149024908607047080500500C0500501C
:1012600001490F200860704714050050012101FA60
:1012700000F003490968084018BF012070470000CA
:1012800010050050012202FA00F000290CBF0249AB
:1012900002490860704700001C0500501805005006
:1012A00001210160202101714FF0FF318160704701
:1012B00004490120086004490022C1F800210860A7
:1012C0007047000004D5004000D0004030B4884290
:1012D00002D9484041404840194A00BFD2F8003185
:1012E000002BFBD04FF0000CC2F800C1154C236856
:1012F0005FEA0365D2F80031002BFBD0C2F800C1D1
:101300002368DBB245EA0345D2F80031002BFBD05D
:10131000C2F800C12368DBB245EA0325D2F80031E8
:10132000002BFBD0C2F800C12268091AD2B22A43AE
:10133000491CB2FBF1F301FB132130BC0844704798
:1013400000D0004008D50040EFF3108000280CBF0B
:101350000120002072B6704762B670470C4910B485
:101360000120C864DFF82CC0DCF800200A4B9C6820
:10137000DC68C864DCF800000021904222BF002134
:1013800010BC70479A68DB68081810BC5141704760
:10139000009000404C950040780000202021017111
:1013A0004FF0FF331021836001601148012141603B
:1013B000C160DFF840C00322CCF80020ACF1040C7F
:1013C0000022CCF80020DFF830C0CCF80020DFF895
:1013D0002CC0CCF800300B04C0F80433C0F8002255
:1013E0004FF0E0234215C3F8002101607047000070
:1013F0000090004008950040109500404095004046
:1014000070B4002401231C4A002814BF4FF0010CC3
:101410004FF0000CD360536014D0184E4FF003050A
:101420003560A6F104052C60154D4FF004042C60C6
:10143000144CA0F1010020604FF48030C2F8040386
:10144000C2F800324FF480704FF0E024BCF1000F7E
:1014500009D0DFF834C0CCF80010C4F80001D36024
:10146000136070BC70475360C4F88001BFF34F8FA6
:10147000BFF36F8F70BC704700800040088500404C
:101480001085004040850040780000202C4A002153
:101490001160B0F5164F08BF4FF41D003FD022DC9D
:1014A000B0F5165F08BF274839D011DCB0F5966F4C
:1014B00008BF4FF49E2032D0B0F5166F08BF4FF42E
:1014C0001D202CD0B0F5965F08BF1F4827D024E020
:1014D000B0F5615F08BF1D4821D0B0F5964F08BF39
:1014E0001B481CD019E0B0F5613F08BF4FF06C708D
:1014F00015D006DCB0F5614F08BF4FF46B000CD17E
:101500000DE0B0F5E12F08BF4FF0E86007D0B0F56F
:10151000612F08BF4FF0706001D04FF0EB700D4AA3
:1015200010600D4A062010600C4A082010600C4A1A
:1015300010600C48C0F82011C0F81011704700006E
:101540006C2500400050270000B0130000F03A0066
:1015500000A04E00242500400C250040142500402A
:10156000002500400020004009490870094801603A
:101570000121001D016008480022C0F8202181607F
:10158000D0F820110029FBD0C0F8202170470000BE
:101590008800002044250040002000400249014806
:1015A000086070473546526E000601404FF0FF312B
:1015B000074A01EBC0300921116006490860081D87
:1015C000016841F001010160034901200860704792
:1015D0000C050140040501400000014010B5FFF773
:1015E000DBFC002804BF012010BDFFF739FEFFF728
:1015F00027FC04001DD04FF41650FFF7F3FCFFF753
:1016000049FC0120FFF7D6FB022000F0D7F80320A9
:1016100000F028F9FFF794FC00F01EFB0A20FFF70A
:1016200034FD0B2202210348FFF762FB2046FFF73F
:1016300071FAFEE7ED16000070B51E4C0546FF2856
:1016400008D0601CC5F102018078012202FA01F184
:10165000084214D118A0FFF701FD19A0FFF7FEFC06
:101660001DA0FFF7FBFCA069FF2D0CBF14380A3842
:10167000A0610020A062206A401C206270BD0EA004
:10168000FFF7ECFC15A0FFF7E9FC13A0FFF7E6FC61
:10169000A06A401CA0620528A3BF00EB8000A169DE
:1016A00001EB8000A069B8BF1430A061E069401C64
:1016B000E06170BD000000205B494E464F5D200098
:1016C00041204C412050524F58494D4120534552E2
:1016D000412E2E2E000000000D0A00004D5559200D
:1016E0004249454E21210000704770472DE9F041E5
:1016F0001A4D0646884695F80104401C00F03F0745
:1017000095F80004B8420DD1D5F80404FFF7DAFBD0
:10171000012401212046FFF759FB601CC4B2042CB0
:10172000F7D9FEE7FFF7E0FB95F8010405EB00149D
:101730002670C4F80480FFF703FCC4E9020185F8B1
:1017400001740D2E05D2064850F82610491C40F8A9
:101750002610BDE8F041FFF7D3BB00008801002050
:10176000900500202DE9F041134C0E46074694F8F1
:10177000000494F801141546884204BF0020BDE817
:10178000F081FFF7B1FB94F8000404EB0013187824
:10179000387058683060D3E90201C5E9000194F857
:1017A0000004401C00F03F0084F80004FFF7A8FB91
:1017B0000120BDE8F081000088010020DFF850C062
:1017C00030B400218CF800148CF801140CF10402E0
:1017D000CCF804046346101D4FF0400C03F8101BB6
:1017E000002442F8101BE0E80444BCF1010CF5D1E0
:1017F00008488160C160016141618161C16101622C
:1018000041628162C16201634163816330BC7047A0
:10181000880100208805002010B5114C0728626857
:1018200017D000221146104600F0E8F9072162683F
:1018300000F008F960680022401C606046F2A811C0
:10184000104600F0DBF96268BDE81040072100F0A7
:10185000F9B8914218BF10BDBDE81040FFF78CBA2F
:10186000500000202DE9F0412A4A0021DFF8A8C0ED
:10187000C2E90001674607F114030A465FF00D0450
:1018800002EB42050CF8181B07EBC50503F8181B03
:10189000521C6960641EF3D120A100250978204EF6
:1018A0000D2928BFBDE8F08101EB410107EBC10222
:1018B0001178042902D3FFF705FBFEE700238C46CD
:1018C0001846814200DDEBB1A1EB0C04002CC8BF2F
:1018D00000200CDD0B1A02EB830852F8237013442E
:1018E000C8F80470DF7C401C1F75641EF2D102EB47
:1018F0008C00466002EB0C0005751078401C1070DF
:10190000BDE8F0811418247DAC4284BF84460123D5
:10191000401CD6E750000020C40500200200000053
:1019200019180000002286B046F2A811104600F0F7
:1019300065F91D494A68072100F084F81B4F02AE83
:1019400004AA01A96846FFF70DFF48B318A09DF847
:101950000010006802900020325C8A4218BF012902
:101960001BD000F101000128F6DB00BF9DF800004C
:10197000002400EB400007EBC00528780028DFDDDD
:1019800005EB840042681AB19DF800000199904768
:101990002878641CA042F3DCD2E7FFF76DFBE5E793
:1019A000FFF7FAF9CCE7000050000020C405002042
:1019B000020000002DE9F0410D2824BF0020BDE801
:1019C000F08100EB40001D4B03EBC00318780428A6
:1019D00004D31B480068FFF775FAFEE700240646AB
:1019E000A446604500DDFCB1A0EB060CBCF1000F85
:1019F000C8BF00240DDD051B03EB850853F82570D7
:101A00001D44C8F80470EF7C641C2F75BCF1010CF8
:101A1000F1D103EB86004260981901751878401CDB
:101A200018700120BDE8F08103EB0C052D7D8D427F
:101A300084BF664601240CF1010CD2E7C4050020E6
:101A4000500000202DE9F05FC60F30F07F44494878
:101A50004FF000051CBF00234FF0010826D000BF47
:101A600003EB830C10F82C7047B100EB8C0797F850
:101A70000C90894504BF3F6997420FD100F82C8034
:101A800000EB8C0C4FF001058CF80160CCF80440A1
:101A9000CCF808408CF80C10CCF8102003F10103AE
:101AA0000A2B54DA002DDBD0BDE8F09F041F057827
:101AB000A0F11403A0F1080C002635B19CF81450D5
:101AC0008D4202BF656995421E759CF82870D4F856
:101AD00028804FF0040503F1140304F114040CF101
:101AE000140C00BF93F814B01CF8289F54F828AFCA
:101AF000BBF1000F03D08F4204BF90451E759CF8C8
:101B0000147093F828B0D4F81480BBF1000F04D0FF
:101B1000894504BF924583F8286003F128036D1EB0
:101B2000E0D190F8B430002B08BFBDE8F09F114B16
:101B300093F8C0308B4218BFBDE8F09F0D49D1F833
:101B4000C410914208BF80F8B460BDE8F09F002D3A
:101B500018BFBDE8F09F08480068FFF7B3F907A079
:101B6000FFF77CFA08A0FFF779FA0DA0FFF776FAE5
:101B7000FEE70000BC000020480000205B455252F8
:101B80004F525D20000000004F564552464C4F57C3
:101B900020444520414C41524D4153212100000039
:101BA0000D0A00002DE9F0470025DFF84880124EAD
:101BB000A94600BF05EB850716F82700A0B106EB84
:101BC0008704A068142828BF14380CD2D8F8042041
:101BD00012B1207B216990476078002814BF6068AB
:101BE00006F8279000D0A0606D1C0A2DE2DBBDE84E
:101BF000F087000048000020BC000020030021F016
:101C00007F4002F07F0140EA016018BF40F00040D1
:101C10007047000070B5154602460C480C4B4FF05B
:101C2000050CC0E9002100241C7503F8284FBCF105
:101C3000010CF9D12A461420FFF7BAF92846BDE86D
:101C40007040044A0021FFF7B5BE000048000020A4
:101C5000A8000020A51B0000FFF72ABBFFF736BB3A
:101C60000B0000000C00000018000000190000002C
:101C70000D0000000E0000000F000000100000002A
:101C80001C0000001D0000001E0000001F000000DE
:101C9000B01C00000000002090000000A006000022
:101CA000401D00009000002070460000B0060000BB
:101CB0000000000000000000010000000200000021
:101CC0000000000000000000000000000000000014
:101CD0000000000000000000000000000000000004
:101CE00000000000000000000100000000000000F3
:101CF00000000000000000000000000000000000E4
:101D000000000000000000000000000004000000CF
:101D1000000000000B0000000C0000001800000094
:101D2000190000000000000000000000000000009A
:101D30000000000000000000000000000090D00340
:0400000500000201F4
:00000001FF
