:020000040000FA
:10000000004A0020150200001D0200001F0200002F
:100010002102000023020000250200000000000071
:1000200000000000000000000000000027020000A7
:1000300029020000000000002B0200002D02000039
:100040002F0200002F0200002F0200002F020000EC
:100050002F0200002F020000250300002F020000E5
:1000600075060000A90600002F0200002F02000004
:100070002F0200002F0200002F0200002F020000BC
:100080002F0200002F0200002F0200002F020000AC
:100090002F0200002F0200002F0200002F0200009C
:1000A0002F0200002F0200002F0200002F0200008C
:1000B0002F0200002F0200000000000000000000DE
:1000C0002F0200002F0200002F0200002F0200006C
:1000D0002F0200002F0200002F0200002F0200005C
:1000E0002F0200002F0200002F020000000000007D
:1000F000000000002F020000000000002F0200009E
:1001000000000000000000000000000000000000EF
:1001100000000000000000000000000000000000DF
:1001200000000000000000000000000000000000CF
:1001300000000000000000000000000000000000BF
:1001400000000000000000000000000000000000AF
:10015000000000000000000000000000000000009F
:10016000000000000000000000000000000000008F
:10017000000000000000000000000000000000007F
:10018000000000000000000000000000000000006F
:10019000000000000000000000000000000000005F
:1001A000000000000000000000000000000000004F
:1001B000000000000000000000000000000000003F
:1001C000000000000000000000000000000000002F
:1001D000000000000000000000000000000000001F
:1001E000000000000000000000000000000000000F
:1001F00000000000000000000000000000000000FF
:10020000DFF80CD000F07CF800480047650F0000D4
:10021000004A00200648804706480047FEE7FEE700
:10022000FEE7FEE7FEE7FEE7FEE7FEE7FEE7FEE7A6
:10023000F5030000010200002DE9F05F05460020F3
:1002400092469B4688460646814640241BE0284647
:1002500041464746224600F042F853465A46C01AE5
:10026000914110D311461846224600F029F82D1A64
:1002700067EB01084F4622460120002100F020F8DC
:1002800017EB00094E41201EA4F10104DFDC4846B3
:1002900031462A464346BDE8F09F00000649074A1A
:1002A0000868504343F23902104408604008704720
:1002B0000149086070470000600000206D4EC64193
:1002C000202A04DB203A00FA02F100207047914016
:1002D000C2F1200320FA03F3194390407047202A0B
:1002E00004DB203A21FA02F00021704721FA02F3E0
:1002F000D040C2F1200291400843194670470000E7
:10030000064C074D06E0E06840F0010394E8070062
:1003100098471034AC42F6D3FFF776FF5015000033
:10032000701500002DE9F05FDFF8C0A00025DAF8B5
:100330000400002898BFBDE8F09FDFF8B4B00127A3
:100340004FF002084FF003095FF000065BF825004C
:100350000B2808BF34460BD00C2808BF3C4607D0FA
:10036000182808BF444603D0192808BF4C4636D188
:10037000A10001F1804101F5C041D1F8001100292F
:100380002DD0DAF8081089B10B2808BF00200CD056
:100390000C2808BF012008D0182808BF022004D06C
:1003A000192814BF4FF0FF30032088475BF8250061
:1003B0000B2808BF30460BD00C2808BF384607D0A2
:1003C000182808BF404603D0192808BF484606D160
:1003D000800000F1804000F5C040C0F80061DAF80C
:1003E00004006D1C8542B1D3BDE8F09F40000020A1
:1003F0004C00002010B44FF080520023D2E94C1082
:10040000082909D14FF0804CCCF80C31CCF81031D0
:10041000DFF8D4C1CCF80030082965D1734B1B68D4
:10042000DFF8CCC1CCF80030724B1B680CF1040C27
:10043000CCF80030704B1B680CF1040CCCF8003089
:100440006E4B1B680CF1040CCCF800306C4B1B6835
:100450000CF1040CCCF800306A4B1B680CF1040C56
:10046000CCF80030684B1B68DFF8A0C1CCF8003036
:10047000674B1B680CF1040CCCF80030654B1B6813
:100480000CF1040CCCF80030634B1B680CF1040C2D
:10049000CCF80030614B1B680CF1040CCCF8003038
:1004A0005F4B1B680CF1040CCCF800305D4B1B68F3
:1004B000DFF874C1CCF800305C4B1B680CF1040C05
:1004C000CCF800305A4B1B680CF1040CCCF800300F
:1004D000584B1B680CF1040CCCF80030564B1B68D1
:1004E0000CF1040CCCF80030082908BF5FEA0003C7
:1004F00004D1DFF84CC1514BCCF80030082908BFBB
:100500005FEA000304D1DFF83CC1FB23CCF80030E4
:10051000082908BF5FEA000308D14B4B92F8584204
:10052000D3F800C064F3030CC3F800C0082908BF67
:100530005FEA000305D1DFF814C14FF40073CCF873
:100540000030082907D14248016811F0010F1CBF93
:100550006FF0010101603F48016841F470010160E2
:10056000BFF34F8FBFF36F8FD2E94C104FF01022C3
:10057000082905D1042803D9D2F8080236490860B1
:10058000D2F8000210F0004F04BFD2F8040210F0BD
:10059000004F24D0314B01201860314801680029F8
:1005A000FCD04FF0120CC2F800C201680029FCD048
:1005B000C2F804C201680029FCD00021196001685A
:1005C0000029FCD0BFF34F8F26480168264A01F46A
:1005D000E06111430160BFF34F8F00BFFDE7244985
:1005E0002248086010BC7047380500400404001021
:1005F00020C50040080400100C0400101004001076
:1006000014040010180400101C04001040C5004021
:100610002004001024040010280400102C040010F2
:10062000300400103404001060C50040380400108D
:100630003C040010400400104404001048810300F2
:100640008C56004018F50040E40E004040960240F1
:100650000004004088ED00E05805004004E501403A
:1006600000E401400CED00E00400FA050090D00326
:100670005C0000200A4882B0D0F84011002904BF75
:1006800002B070470021C0F84011D0F8400100903E
:1006900004480068002804BF02B0704702B0004759
:1006A00000800040300000200D4881B0D0F840218B
:1006B0000C4962B10022C0F840218B68CA685B1CFB
:1006C00042F100028B60CA60D0F840010090886857
:1006D000CA68401C42F100028860CA6001B07047DD
:1006E000009000403000002002E008C8121F08C13E
:1006F000002AFAD170477047002001E001C1121FA3
:10070000002AFBD17047000070B52E4C002918BF9D
:10071000A16060780026C8B1002918BF70BD032110
:10072000012000F043FCC0B22070012100F062F90A
:10073000A660002266704FF4FA61104600F0A6FE33
:100740002278BDE87040092100F0F8BD2078A1684A
:1007500081421BD060680125012808D30121284669
:1007600000F048F9681CC5B26068A842F6D20022C1
:10077000267011461046A66000F088FE22780921F6
:1007800000F0DCFDBDE8704000F00AB9002100F087
:1007900031F90120002260701146104600F076FE0B
:1007A0002278092100F0CAFD00220821104600F03D
:1007B000C5FDBDE87040002208214FF4FA7000F03A
:1007C000BDBD00001C000020174910B5486000F0B6
:1007D00051F9012000F002F9022000F055FC03203D
:1007E00000F0A6FC114800F0A3F800224FF4FA71C3
:1007F000012000F04BFE0022082100F09FFD0C4A72
:100800000021082000F052FD0A4A0021092000F0D2
:100810004DFD00F075F900F0C7FB0A2000F0ABF9C0
:10082000BDE8104000F0FABC1C000020850F00005D
:1008300009070000E914000003480268002A08BF05
:100840007047002140681047000000202DE9F04764
:100850000D460846354900274FF001084A684FF019
:1008600002094FF0030A824208BF3C460FD0CA6813
:10087000824208BF44460AD04A69824208BF4C46B9
:1008800005D0CA6982420CBF5446BDE8F08701EB2F
:10089000C406307898B1012821D0022831D003282D
:1008A00018BFBDE8F087284600F07CFB284600F022
:1008B00089F9284600F0D2F93770BDE8F08728465C
:1008C00000F09AF900221421104600F0DFFDE11C2F
:1008D0002A4600F033FD86F80080BDE8F08700224C
:1008E0000A21012000F0D2FD0746284600F05BFBFC
:1008F000E11C2A46384600F021FD86F80090BDE84C
:10090000F087284600F04AFA012818BFBDE8F087B2
:1009100000221421104600F0B9FDE11C2A4600F027
:100920000DFD86F800A0BDE8F0870000A0080020BB
:100930002DE9F04100F0CAF901221549042000F028
:10094000B1FD0024134E144D274600BF06F8347045
:1009500006EBC40155F82400486000F07FF955F813
:10096000240000F06BF955F82400002100F022FA71
:10097000E01CC0B2094A002100F098FC641C042C61
:10098000E4DBBDE8F0410021044A022000F08EBC07
:10099000D50F0000A0080020401500004D08000001
:1009A00010B500F007F900F005F900F0EFF8034882
:1009B0000068BDE8104000F075B800000800002095
:1009C00010B5054C206800F043F800F0EFF82068FF
:1009D000BDE8104000F066B80800002010B50446DD
:1009E00000F0E6F800F046F80148046010BD000091
:1009F0000800002010B508B1042801D9002010BD5E
:100A0000002914BF00210121044A02EB800050F8A4
:100A1000040C00F0AFF9012010BD0000201500000B
:100A200070B50A4E012400BF06EB8405012155F87C
:100A3000040C00F0BFF955F8040C012100F09AF9FC
:100A4000601CC4B2042CEFD9042070BD2015000036
:100A500008B1042801D900207047054910B501EB01
:100A60008000012150F8040C00F084F9012010BD31
:100A70003015000070B50A4E012400BF06EB840556
:100A8000012155F8040C00F095F955F8040C0121EA
:100A900000F070F9641C042CF0D9042070BD000033
:100AA0003015000008B1042801D90020704705491D
:100AB00010B501EB8000002150F8040C00F05AF949
:100AC000012010BD3015000010B5044C6068401CBA
:100AD000606000F085F9207010BD00002800002043
:100AE0000648416819B1491E416018BF7047007837
:100AF000002808BF704700F07BB9000028000020E4
:100B000010B500F077F9034A00231268FFF794FB51
:100B100010BD00006400002010B5044800F08AF900
:100B200002480068002818BF012010BD64000020A2
:100B300010B504460848C0E90012084800F048F91A
:100B400006484FF47A7161430068BDE8104048439D
:100B5000034900F0A1B9000000000020640000205B
:100B60003908000010B5FFF7AFFF00F0DBF9BDE872
:100B70001040FFF7B5BF10B50446FFF7A5FF2046AC
:100B800000F0D8F9BDE81040FFF7AABF05494FF0C3
:100B9000FF30086004490120086040BF20BF20BF2B
:100BA00070470000000400400005004030BF70475F
:100BB0007047000002494FF0FF30C1F8080370474A
:100BC0000060004000220B2808BF11460BD00C2803
:100BD00008BF012107D0182808BF022103D0192817
:100BE0000CBF03217047880000F1804000F5C04031
:100BF000C0F8002170470000002301220B2808BF25
:100C000019460BD00C2808BF114607D0182808BF7A
:100C1000022103D019280CBF03217047880000F17E
:100C2000804000F5C040C0F8003102FA01F00249EE
:100C3000C1F808037047000000600040800000F128
:100C4000A040D0F8001721F44031C0F80017D0F8C8
:100C5000001741F44031C0F800177047002201230B
:100C60000B2808BF11460BD00C2808BF194607D027
:100C7000182808BF022103D019280CBF0321704790
:100C8000DFF83CC04CEA002C880000F1804000F501
:100C9000C040C0F810C5C0F8002103FA01F00949AE
:100CA000C1F8040308490878002818BF704740229B
:100CB0004FF0E020C0F88022C0F800210B70704790
:100CC00001000200006000404000002026498860CA
:100CD00072B6496829B3254A11F001004FF00C03A0
:100CE00007D0D2F800C04FEA8C0C0CF1A04CCCF825
:100CF0000037884215D200BF52F820C04FEA8C0C52
:100D00000CF1A04CCCF8003702EB800CDCF804C0EE
:100D10004FEA8C0C0CF1A04CCCF80037801C8842B8
:100D2000EAD3134A4FF0FF30C2F80803002002460E
:100D300007E0830003F1804303F5C043C3F80021BB
:100D4000401C884201D20828F3DB4FF0E02040210C
:100D5000C0F8801100F5C070BFF34F8FBFF36F8FE5
:100D6000C0F8001162B67047400000204C0000201F
:100D700000600040012202FA00F011F0010F14BFE0
:100D80000149024908607047080500500C050050F1
:100D900001490F200860704714050050012101FA35
:100DA00000F003490968084018BF0120704700009F
:100DB00004050050012202FA00F000290CBF02498C
:100DC00002490860704700001C05005018050050DB
:100DD00001210160202101714FF0FF3181607047D6
:100DE000EFF3108000280CBF0120002072B670477E
:100DF00062B670470C4910B40120C864DFF82CC0FB
:100E0000DCF800200A4B9C68DC68C864DCF8000051
:100E10000021904222BF002110BC70479A68DB6815
:100E2000081810BC51417047009000404C9500409C
:100E300030000020202101714FF0FF33102183602A
:100E40000160114801214160C160DFF840C0032208
:100E5000CCF80020ACF1040C0022CCF80020DFF824
:100E600030C0CCF80020DFF82CC0CCF800300B04E8
:100E7000C0F80433C0F800224FF0E0234215C3F855
:100E8000002101607047000000900040089500407C
:100E9000109500404095004070B4002401231C4A86
:100EA000002814BF4FF0010C4FF0000CD3605360CA
:100EB00014D0184E4FF003053560A6F104052C60E0
:100EC000154D4FF004042C60144CA0F1010020607B
:100ED0004FF48030C2F80403C2F800324FF480703F
:100EE0004FF0E024BCF1000F09D0DFF834C0CCF89B
:100EF0000010C4F80001D360136070BC70475360E9
:100F0000C4F88001BFF34F8FBFF36F8F70BC704781
:100F1000008000400885004010850040408500406A
:100F20003000002002490148086070473546526E83
:100F3000000601404FF0FF31074A01EBC0300921A4
:100F4000116006490860081D016841F00101016057
:100F500003490120086070470C0501400405014069
:100F60000000014010B5FFF7D7FD002804BF0120A5
:100F700010BDFFF70DFFFFF753FD002818BFFFF767
:100F800023FCFEE710B50C46B1F1FF3F08BF10BDD2
:100F900001460220FFF75AFC611CBDE81040082002
:100FA00000F018B870477047FFF782B970B50C466B
:100FB0000546A04204D9604080EA010480EA0405A5
:100FC000FFF76CF9611B491CB0FBF1F201FB120049
:100FD000284470BD2DE9F041174F044697F80108E9
:100FE000421C02F07F0697F80028B2420DD1D7F8D4
:100FF0000408FFF757FD012401212046FFF7FAFC02
:10100000601CC4B2042CF7D9FEE707EB00152C7066
:101010006960FFF775FDC5E9020187F801680A2CD0
:1010200028BFBDE8F081054850F82410491C40F85D
:101030002410BDE8F0810000700000207808002036
:10104000104B10B493F800C893F80148A44502BFB0
:10105000002010BC704703EB0C1C9CF8004004708F
:10106000DCF804000860DCE90201C2E9000193F841
:101070000008401C00F07F0083F8000810BC01202D
:101080007047000070000020DFF84CC030B4002131
:101090008CF800188CF801180CF10402CCF8040844
:1010A0006346101D4FF0800C03F8101B002442F81B
:1010B000101BE0E80444BCF1010CF5D10748816045
:1010C000C160016141618161C1610162416281620E
:1010D000C16230BC70470000700000207008002022
:1010E00010B5124C0228626801D0072817D00022E0
:1010F0001146104600F0CAF90721626800F01EF997
:1011000060680022401C606044F62061104600F0D8
:10111000BDF96268BDE81040072100F00FB99142A7
:1011200018BF10BDBDE81040FFF73ABC0C0000200E
:101130002DE9F84F354D36494FF00A0C2860002054
:101140000C4604F114020346C5F8040003EB430601
:1011500001F8180B04EBC60602F8180B5B1C706054
:10116000BCF1010CF2D12B4A0021072000F09EF8BF
:1011700029A04FF0000C0068EB4600901BF80C0013
:10118000DFF890A04FF000090A2830D200EB4000B1
:1011900004EBC0021078042803D32868FFF782FC10
:1011A000FEE7002380461946884200DD33B3064639
:1011B000A0EB08000028C8BF00230DDDF71A02EBE2
:1011C000870E52F82710CEF80410B918401ECF7CB5
:1011D0000F7503F10103F1D102EB8800C0F804A000
:1011E00002EB080080F814901078401C10700CF18D
:1011F000010CBCF1030FC1DBBDE8F88F5618367D3A
:101200004E4584BF88460123491CCDE70C000020D1
:10121000C0080020E110000002020300002286B096
:1012200044F62061104600F031F91D494A68072153
:1012300000F084F81B4F02AE04AA01A96846FFF72C
:10124000FFFE48B318A09DF800100068029000202F
:10125000325C8A4218BF01291BD000F1010003282B
:10126000F6DB00BF9DF80000002400EB400007EB18
:10127000C00528780028DFDD05EB840042681AB13C
:101280009DF80000019990472878641CA042F3DC87
:10129000D2E7FFF767FCE5E7FFF792FBCCE700003A
:1012A0000C000020C0080020020203002DE9F041DC
:1012B0000A2824BF0020BDE8F08100EB40001D4B50
:1012C00003EBC0031878042804D31B480068FFF719
:1012D000E9FBFEE700240646A446604500DDFCB1BC
:1012E000A0EB060CBCF1000FC8BF00240DDD051BF0
:1012F00003EB850853F825701D44C8F80470EF7C93
:10130000641C2F75BCF1010CF1D103EB8600426027
:10131000981901751878401C18700120BDE8F081FB
:1013200003EB0C052D7D8D4284BF664601240CF134
:10133000010CD2E7C00800200C0000202DE9F04786
:10134000C60F30F07F4439484FF000051CBF002322
:101350004FF0010826D000BF03EB830C10F82C706F
:1013600047B100EB8C0797F80C90894504BF3F69A3
:1013700097420FD100F82C8000EB8C0C4FF0010548
:101380008CF80160CCF80440CCF808408CF80C10C4
:10139000CCF8102003F10103042B3DDA002DDBD043
:1013A000BDE8F08790F800C00023BCF1000F07D023
:1013B00090F80CC08C4502BFD0F810C09445037063
:1013C00090F814C0BCF1000F07D090F820C08C45F5
:1013D00002BFD0F824C09445037590F828C0BCF132
:1013E000000F08D090F834C08C4502BFD0F838C048
:1013F000944580F8283090F83CC0BCF1000F08BF3D
:10140000BDE8F08790F848C08C4502BFC16C91429E
:1014100080F83C30BDE8F087002D18BFBDE8F087AC
:1014200003480068FFF73EFBFEE70000B00900201C
:10143000140000202DE9F0470025DFF84880124E07
:10144000A94600BF05EB850716F82700A0B106EBFB
:101450008704A0680A2888BF0A380CD8D8F8042066
:1014600012B1207B216990476078002814BF606822
:1014700006F8279000D0A0606D1C042DE2DBBDE8CB
:10148000F087000014000020B0090020030021F0C4
:101490007F4002F07F0140EA016018BF40F0004049
:1014A0007047000070B5154602460C480C4B4FF0D3
:1014B000020CC0E9002100241C7503F8284FBCF180
:1014C000010CF9D12A460A20FFF732FB2846BDE875
:1014D0007040044A0021FFF7E9BE0000140000201C
:1014E0009C0900203514000070B50C4C2078814216
:1014F00006BF6078002870BD4FF0010560680128C4
:1015000008D301212846FFF775FA681CC5B2606848
:10151000A842F6D200202070A060FEE71C00002048
:101520000D0000000E0000000F0000001000000081
:101530001C0000001D0000001E0000001F00000035
:101540000B0000000C000000180000001900000053
:10155000701500000000002064000000E806000094
:10156000D4150000640000209C490000F80600002B
:10157000000000000000000000000000000000006B
:10158000000000000000000000000000000100005A
:10159000000000000000000001000000000000004A
:1015A000000000000000000000000000000000003B
:1015B0000000000004000000000000000B0000001C
:1015C0000C00000018000000190000000090D0037B
:0415D0000000000017
:0400000500000201F4
:00000001FF
