:020000040000FA
:1000000040400020150200001D0200001F020000F9
:100010002102000023020000250200000000000071
:1000200000000000000000000000000027020000A7
:1000300029020000000000002B0200002D02000039
:100040002F0200002F0200002F0200002F020000EC
:100050002F0200002F020000AD0200002F0200005E
:10006000FD050000310600002F0200002F020000F5
:100070002F0200002F0200002F0200002F020000BC
:100080002F0200002F0200002F0200002F020000AC
:100090002F0200002F0200002F0200002F0200009C
:1000A0002F0200002F0200002F0200002F0200008C
:1000B0002F0200002F0200000000000000000000DE
:1000C0002F0200002F0200002F0200002F0200006C
:1000D0002F0200002F0200002F0200002F0200005C
:1000E0002F0200002F0200002F020000000000007D
:1000F000000000002F020000000000002F0200009E
:1001000000000000000000000000000000000000EF
:1001100000000000000000000000000000000000DF
:1001200000000000000000000000000000000000CF
:1001300000000000000000000000000000000000BF
:1001400000000000000000000000000000000000AF
:10015000000000000000000000000000000000009F
:10016000000000000000000000000000000000008F
:10017000000000000000000000000000000000007F
:10018000000000000000000000000000000000006F
:10019000000000000000000000000000000000005F
:1001A000000000000000000000000000000000004F
:1001B000000000000000000000000000000000003F
:1001C000000000000000000000000000000000002F
:1001D000000000000000000000000000000000001F
:1001E000000000000000000000000000000000000F
:1001F00000000000000000000000000000000000FF
:10020000DFF80CD000F040F800480047A50B0000D4
:10021000404000200648804706480047FEE7FEE7CA
:10022000FEE7FEE7FEE7FEE7FEE7FEE7FEE7FEE7A6
:100230007D030000010200000649074A0868504398
:1002400043F23902104408604008704701490860D1
:1002500070470000300000206D4EC64130B50B469F
:10026000014600202022012409E021FA02F59D42E6
:1002700005D303FA02F5491B04FA02F52844151EBA
:10028000A2F10102F1DC30BD064C074D06E0E0684A
:1002900040F0010394E8070098471034AC42F6D3CD
:1002A000FFF7B2FFB80C0000D80C00002DE9F05F9A
:1002B000DFF8C0A00025DAF80400002898BFBDE8E8
:1002C000F09FDFF8B4B001274FF002084FF00309A8
:1002D0005FF000065BF825000B2808BF34460BD002
:1002E0000C2808BF3C4607D0182808BF444603D056
:1002F000192808BF4C4636D1A10001F1804101F513
:10030000C041D1F8001100292DD0DAF8081089B1C8
:100310000B2808BF00200CD00C2808BF012008D0F3
:10032000182808BF022004D0192814BF4FF0FF304E
:10033000032088475BF825000B2808BF30460BD008
:100340000C2808BF384607D0182808BF404603D0FD
:10035000192808BF484606D1800000F1804000F50A
:10036000C040C0F80061DAF804006D1C8542B1D3CA
:10037000BDE8F09F100000201C00002010B44FF0DA
:1003800080520023D2E94C10082909D14FF0804C4B
:10039000CCF80C31CCF81031DFF8D4C1CCF80030F7
:1003A000082965D1734B1B68DFF8CCC1CCF800304D
:1003B000724B1B680CF1040CCCF80030704B1B68BE
:1003C0000CF1040CCCF800306E4B1B680CF1040CE3
:1003D000CCF800306C4B1B680CF1040CCCF80030EE
:1003E0006A4B1B680CF1040CCCF80030684B1B689E
:1003F000DFF8A0C1CCF80030674B1B680CF1040C8F
:10040000CCF80030654B1B680CF1040CCCF80030C4
:10041000634B1B680CF1040CCCF80030614B1B687B
:100420000CF1040CCCF800305F4B1B680CF1040C91
:10043000CCF800305D4B1B68DFF874C1CCF800309D
:100440005C4B1B680CF1040CCCF800305A4B1B6859
:100450000CF1040CCCF80030584B1B680CF1040C68
:10046000CCF80030564B1B680CF1040CCCF8003073
:10047000082908BF5FEA000304D1DFF84CC1514BE3
:10048000CCF80030082908BF5FEA000304D1DFF888
:100490003CC1FB23CCF80030082908BF5FEA000309
:1004A00008D14B4B92F85842D3F800C064F3030CC8
:1004B000C3F800C0082908BF5FEA000305D1DFF8D0
:1004C00014C14FF40073CCF80030082907D142481A
:1004D000016811F0010F1CBF6FF0010101603F487E
:1004E000016841F470010160BFF34F8FBFF36F8F5C
:1004F000D2E94C104FF01022082905D1042803D965
:10050000D2F8080236490860D2F8000210F0004F15
:1005100004BFD2F8040210F0004F24D0314B012068
:100520001860314801680029FCD04FF0120CC2F865
:1005300000C201680029FCD0C2F804C20168002989
:10054000FCD00021196001680029FCD0BFF34F8F57
:1005500026480168264A01F4E06111430160BFF3B7
:100560004F8F00BFFDE724492248086010BC704748
:10057000380500400404001020C5004008040010A5
:100580000C040010100400101404001018040010D3
:100590001C04001040C5004020040010240400107A
:1005A000280400102C040010300400103404001043
:1005B00060C50040380400103C04001040040010E6
:1005C00044040010488103008C56004018F5004098
:1005D000E40E0040409602400004004088ED00E038
:1005E0005805004004E5014000E401400CED00E046
:1005F0000400FA050090D0032C0000200A4882B0C5
:10060000D0F84011002904BF02B070470021C0F8A3
:100610004011D0F84001009004480068002804BF51
:1006200002B0704702B00047008000400000002088
:100630000D4881B0D0F840210C4962B10022C0F8C9
:1006400040218B68CA685B1C42F100028B60CA6063
:10065000D0F8400100908868CA68401C42F100024E
:100660008860CA6001B07047009000400000002020
:100670000FB4084B10B504A902AA039800F01CF8A7
:10068000044602A9002000F0F3F8204610BC5DF8F3
:1006900014FB00007108000002E008C8121F08C126
:1006A000002AFAD170477047002001E001C1121FF3
:1006B000002AFBD1704700002DE9FF4F8BB09A460E
:1006C0000F460546002606E025280BD052460D9918
:1006D00090476D1C761C28780028F5D10FB0304665
:1006E000BDE8F08F0024A0460122604900E00443E9
:1006F00015F8013F203B02FA03F00842F7D12878B1
:100700002E2817D115F8010F44F004042A280ED022
:100710006FF02F022878A0F1300109290AD808EBE0
:10072000880102EB410100EB01086D1CF2E757F86C
:10073000048B6D1C287869283ED006DC0028CDD0BB
:1007400063280BD0642804D136E0732810D07528B4
:100750004BD052460D999047761C85E017F8040B54
:100760008DF8000000208DF80100E946012003E02B
:1007700057F8049B4FF0FF3061074FF0000401D49D
:100780000AE0641C44450DDA8442FADB19F80410CF
:100790000029F6D106E0641C8442FCDB19F8041041
:1007A0000029F8D1264404E019F8010B52460D99AE
:1007B0009047641EF8D257E001CF4FF00A0B002893
:1007C00002DA40422D2102E0210504D52B218DF8CB
:1007D0002410012103E0E10705D02021F7E70DF106
:1007E000200908910CE00021F9E701CF4FF00A0B36
:1007F000F9E75946FFF732FD01F1300209F8012D02
:100800000028F6D1ADEB090000F1200B600701D400
:100810004FF00108D84502DDA8EB0B0000E00020F6
:100820008046002406E009A85246005D0D999047D5
:10083000641C761C08988442F5DB04E030205246A4
:100840000D999047761CB8F10001A8F10108F5DC7C
:1008500005E019F8010B52460D999047761CBBF143
:100860000001ABF1010BF4DC6D1C34E70928010039
:100870000A68531C0B60107070470000F0B59DB003
:100880004FF4165000F098F800F0F6F900200090B0
:1008900001900290234F039004900590069001254B
:1008A0006E4607902A4620A108A8FFF7E1FE2BA07C
:1008B00000F084F808A800F081F82AA000F07EF883
:1008C00000240321002000F0DAF9C0B2305510F006
:1008D000010F14BF3123302310F0020F14BF312257
:1008E000302221A11AA8FFF7C3FE1AA800F066F86B
:1008F000601C87FB00218A10A2EBE171494201EBE9
:10090000810110EB410004BF16A000F057F8641CF1
:100910001E2CD6DB13A000F051F86D1C062DC1DB98
:100920001DB0F0BD67666666504152544954555239
:1009300041204E554D45524F3A2025640D0A3D3D0C
:100940003D3D3D3D3D3D3D3D3D3D3D3D3D3D3D3DD7
:100950003D3D3D3D3D3D3D3D3D0000005B494E463A
:100960004F5D20000D0A0000256325632000000074
:1009700070B50A4E012400BF06EB8405012155F82D
:10098000040C00F03DF855F8040C012100F024F8A7
:10099000601CC4B2042CEFD9042070BDA80C000068
:1009A00010B5044800F03AF802480068002818BF63
:1009B000012010BD3400002000F062B810B50446DC
:1009C0000078002808BF10BD14F8010B00F0C6F82D
:1009D00020780028F8D110BD012202FA00F011F0B1
:1009E000010F14BF01490249086070470805005013
:1009F0000C05005001490F20086070471405005095
:100A0000012202FA00F000290CBF024902490860E5
:100A1000704700001C05005018050050202101718E
:100A20004FF0FF33102183600160114801214160C4
:100A3000C160DFF840C00322CCF80020ACF1040C08
:100A40000022CCF80020DFF830C0CCF80020DFF81E
:100A50002CC0CCF800300B04C0F80433C0F80022DE
:100A60004FF0E0234215C3F80021016070470000F9
:100A700000900040089500401095004040950040CF
:100A80002C4A0E211160B0F5164F08BF4FF41D001F
:100A90003FD022DCB0F5165F08BF274839D011DC03
:100AA000B0F5966F08BF4FF49E2032D0B0F5166FA8
:100AB00008BF4FF41D202CD0B0F5965F08BF1F482B
:100AC00027D024E0B0F5615F08BF1D4821D0B0F504
:100AD000964F08BF1B481CD019E0B0F5613F08BF16
:100AE0004FF06C7015D006DCB0F5614F08BF4FF4C5
:100AF0006B000CD10DE0B0F5E12F08BF4FF0E860BE
:100B000007D0B0F5612F08BF4FF0706001D04FF0F3
:100B1000EB700D4908600D49062008600C4908205B
:100B200008600C4908600C490020C1F82001C1F898
:100B3000100170476C2500400050270000B01300E2
:100B400000F03A0000A04E00242500400C25004093
:100B500014250040002500400020004001B40D494C
:100B600081B001A808600C48012101600B480022F7
:100B7000C0F8202181600A490091D0F8201121B9E4
:100B800000990029C8BF491EF6DCC0F8202102B038
:100B900070470000442500404825004000200040E8
:100BA00040420F00F0B59DB0FFF7FAFE002802BFEB
:100BB00001201DB0F0BDFFF71DFFFFF7D9FE002893
:100BC0004FD04FF41650FFF7F7FE00F055F8002015
:100BD000009001900290234F03900490059006909E
:100BE00001256E4607902A461F4908A8FFF740FDD9
:100BF0001E48FFF7E3FE08A8FFF7E0FE1C48FFF7DA
:100C0000DDFE00240321002000F039F8C0B2305589
:100C100010F0010F14BF3123302310F0020F14BF66
:100C20003122302213491AA8FFF722FD1AA8FFF734
:100C3000C5FE601C87FB00218A10A2EBE1714942CE
:100C400001EB810110EB410004BF0948FFF7B6FE3C
:100C5000641C1E2CD6DB0648FFF7B0FE6D1C062D6B
:100C6000C1DBFEE767666666280900005C090000D4
:100C700064090000680900000120FFF7E7BA70B5B9
:100C80000C460546A04204D9604080EA010480EA8F
:100C90000405FFF7D1FA611B491CB0FBF1F201FB1F
:100CA0001200284470BD00000D0000000E0000007E
:100CB0000F00000010000000D80C00000000002011
:100CC00034000000980600000C0D000034000020E5
:100CD0000C400000A806000000000000000000001A
:100CE0000000000000000000000000000400000000
:100CF000000000000B0000000C00000018000000C5
:0C0D0000190000000090D003000000006B
:0400000500000201F4
:00000001FF
